:020000040800F2
:1000000018150020E1010008E7200008A7190008E2
:10001000E520000857060008D52800080000000069
:10002000000000000000000000000000B1210008F6
:10003000910600080000000009210008B321000813
:10004000FB010008FB010008FB010008FB010008A0
:10005000FB010008FB010008FB010008FB01000890
:10006000FB010008FB010008A3060008FB010008D3
:10007000FB010008FB010008FB010008FB01000870
:10008000FB010008FB010008FB010008FB01000860
:10009000FB010008FB010008FB010008FB01000850
:1000A000FB010008FB010008FB010008FB01000840
:1000B000FB010008FB010008FB010008FB01000830
:1000C000FB010008FB010008FB010008FB01000820
:1000D000FB0100080D280008FB010008FB010008D7
:1000E000FB010008FB010008FB010008FB01000800
:1000F000FB010008FB010008FB010008FB010008F0
:10010000FB010008FB010008FB010008FB010008DF
:1001100069250008FB010008FB010008FB0100083D
:10012000FB010008FB010008FB010008FB010008BF
:1001300000F002F800F045F80AA090E8000C8244B4
:100140008344AAF10107DA4501D100F03AF8AFF291
:10015000090EBAE80F0013F0010F18BFFB1A43F0A5
:10016000010318471061000030610000103A24BFFD
:1001700078C878C1FAD8520724BF30C830C144BF0C
:1001800004680C607047000000230024002500264E
:10019000103A28BF78C1FBD8520728BF30C148BFEA
:1001A0000B607047642900F07780752900F0748037
:1001B000782900F0AD80002070471FB51FBD10B535
:1001C00010BD00F00EFA1146FFF7F7FF02F08CFFAA
:1001D00000F02CFA03B4FFF7F2FF03BC00F034FA8E
:1001E0000948804709480047FEE7FEE7FEE7FEE7CB
:1001F000FEE7FEE7FEE7FEE7FEE7FEE70448054907
:10020000054A064B70470000112200083101000822
:100210001805002018150020180D0020180D0020CA
:100220000FB41CB5074B06AA7B446946009005989D
:1002300000F0BFF90020694600F0CEF91CBC5DF863
:1002400014FB0000AD03000070B50446856900682A
:10025000C10601D5302600E02026C00707D070BDBA
:10026000D4E9012130469047206A401C20626D1E6F
:10027000F6D570BD70B5044685690078C00707D112
:1002800070BDD4E9012120209047206A401C2062E3
:100290006D1EF6D570BD00002DE9F0410646002424
:1002A00010687529314616A510D0AFF300800028DC
:1002B00002DA404213A507E031688A0701D512A58A
:1002C00002E0490704D511A5012401E0AFF3008045
:1002D00000210A2206F1240709E0B0FBF2FCB0FB82
:1002E000F2F302FB1C00303078541846491C0028F9
:1002F000F3D123462A463046BDE8F04100F0FAB873
:10030000000000002D0000002B0000002000000075
:1003100070B504460D4621461068AFF30080218871
:10032000090502D50F4A7A4402E00E4A7A440E3299
:10033000002104F1240305E000F00F060009965D9A
:100340005E54491C0028F7D120780023000704D50B
:10035000702D02D009B1022311322046BDE8704051
:1003600000F0C8B8105F00002DE9F05F8946044630
:100370004FF0000ADFF824B1FB44C0F820A020466B
:10038000E168884700287DD0252806D0D4E90121DE
:100390009047206A401C2062F1E700255F46204616
:1003A000E16888472028064607DB312E05D2B819B8
:1003B00010F8200C08B10543F1E7A80701D525F096
:1003C0000405C4F81CA00027C4F818A02A2E09D0E0
:1003D000304602F0DFFB38B304EB8708303EC8F844
:1003E000186019E059F8041B204604EB870291615C
:1003F000E1688847012F064618D1E069002820DA15
:1004000025F020051DE0D8F8180000EB800006EB71
:1004100040003038C8F818002046E1688847064692
:1004200002F0B8FB0028EED1012F0AD02E2E08D101
:100430002046E16888477F1C0646022F45F02005CC
:10044000C4DBA069002803DA404245F00105A06141
:10045000E80701D025F01005A6B1A6F14100192842
:1004600002D8203645F400654A46314620462560CC
:100470004D46FFF797FE60B1012807D0ED1D25F02E
:10048000070000E007E000F1080978E705F104093A
:1004900075E730467AE7206ABDE8F09FE65E000027
:1004A0004FF0000200B5134694469646203922BF0D
:1004B000A0E80C50A0E80C50B1F12001BFF4F7AF58
:1004C000090728BFA0E80C5048BF0CC05DF804EB3A
:1004D000890028BF40F8042B08BF704748BF20F8A8
:1004E000022B11F0804F18BF00F8012B70477047A6
:1004F000704770472DE9F0470D46994692460446ED
:1005000000F124080168880604D5E06921F0100193
:10051000216000E00120A84201DD471B00E0002728
:10052000A1697A1902EB0900081AA0612078C006B7
:1005300002D42046FFF788FE002608E0D4E9012116
:100540001AF806009047206A401C761C20624E452F
:10055000F4DB2078C0060AD52046FFF775FE06E0DA
:10056000D4E9012130209047206A401C2062381EC7
:10057000A7F10107F4DC07E0D4E9012118F8050030
:100580009047206A401C2062281EA5F10105F3DC7B
:100590002046FFF76FFE2078000602D50220BDE856
:1005A000F0870120FBE7000001694A1C026108781E
:1005B000704700B58FB0CDE90131002105910549A3
:1005C0007944CDE9031011466846FFF7CDFE0FB020
:1005D00000BD0000E5FFFFFF0A6802F8010B0A609A
:1005E0007047754600F02CF8AE4605006946534644
:1005F00020F00700854618B020B5FFF7FFFDBDE8E5
:1006000020404FF000064FF000074FF000084FF079
:10061000000B21F00701AC46ACE8C009ACE8C0090A
:10062000ACE8C009ACE8C0098D46704710B5044677
:10063000AFF300802046BDE81040FFF7CBBD0000BF
:1006400000487047B404002001491820ABBEFEE703
:10065000260002007047FEE708B50B49684602F025
:1006600046F900280ED0BDF80200E938312809D239
:10067000BDF800006038312804D20448016881F0D8
:100680000201016008BD0000080000200C0C0140C0
:10069000704701B5009801E0401E00900028FBD192
:1006A00008BD102000F06CB930B5B3F5804F05D00F
:1006B0006FF0704140F82210002030BD8C690B684B
:1006C0008D6823434C688989240144EA0524234327
:1006D00043EA014150F82230014C23401943E9E735
:1006E0000000F0CF30B50A6850F8223023F0010343
:1006F00040F822308C68204B4A68082C1ED02243D8
:10070000D1E903452C4322434C6922438C6922439F
:10071000CC6922430C6A22434C6A22438C6A2243EE
:10072000CC6A22430C6B0968224350F821401C40DC
:1007300052EA040240F82120002030BDD1E90345EF
:1007400042F008022C4322434C6922438C69224325
:10075000CC6922430C6A22434C6A22438C6A2243AE
:10076000CC6A22430C6B0968224350F821401C409C
:10077000224342F04002DDE78100F7FF30B5D1E9C6
:10078000003443EA04138C688D89240244EA05444A
:1007900023430C8A094D00EB820005EB04542343EC
:1007A0000C7D6D0105EB0464896923430B434168AB
:1007B00001F040410B434360002030BD0000F0FFDA
:1007C0002DE9F05F90F821100024022903D00421C4
:1007D0008163012485E001680A6822F00E020A6044
:1007E00001680A6822F001020A603F4E3E4FB215CE
:1007F000DFF8F4C0DFF8F090DFF8ECA0DFF8E8B045
:10080000DFF8E4E00168783F13011502ACF1640CF5
:10081000A9F15009AAF13C0AABF1280BAEF1140E74
:100820004FF48018B14227D9B9420ED0614512D099
:1008300049451DD0514518D0594518D0714501D1B1
:10084000424615E0294EB14201D1012210E0274E67
:100850001436B14201D110220AE0244E2836B142AA
:1008600006D0224A3C32914201D11A4600E02A4683
:100870001E49091F0A602BE0B94213D0614517D009
:10088000494522D051451DD059451DD0714501D152
:1008900042461AE0B14202D14FF0807215E0134E89
:1008A000B14201D1012210E0104E1436B14201D103
:1008B00010220AE00D4E2836B14206D00B4A3C32D7
:1008C000914201D11A4600E02A46074980394A6020
:1008D000012180F82110002180F82010416B01B126
:1008E00088472046BDE8F09F80000240080402408F
:1008F00070B5044600F052F90546601C02D0044869
:100900000078044400F04AF9401BA042FAD370BDBD
:100910006400002030B585B0002000900190029066
:1009200003901248016800291ED10121016010487E
:10093000416941F4807141614069022400F4807092
:1009400004904FF68070CDE90004032569460395B5
:10095000084800F021F84CF6B370CDE90004694670
:100960000395054800F018F805B030BD4C00002094
:1009700000100240001801400014014070470000C0
:10098000044910B50A68024202D00860FFF7F6FF7A
:1009900010BD0000140401402DE9F84FDFF8B8A1A4
:1009A00000220AF1040B144601274FF00F090BF146
:1009B000040E00BF0B6807FA04F52B40AB4274D15C
:1009C000DFF898C14E68A6EB0C0866452BD00DDC0D
:1009D000032E34D005DC36B3012E19D0022E2FD1D0
:1009E0001BE0112E16D0122E2AD119E0B8F5881F5F
:1009F00019D006DCB8F5803F15D0B8F5801F1FD19F
:100A000011E0B8F5001F0ED0B8F5041F18D10AE0A8
:100A1000CA6815E0CA68121D12E0CA6808320FE001
:100A2000CA680C320CE08A682AB1012A4FF0080229
:100A300003D0456104E0042202E0056100E00022E9
:100A4000FF2B01D8064601E000F104064FEA8405B9
:100A500001D9A5F12005D6F800C009FA05F82CEA5D
:100A6000080C02FA05F54CEA050CC6F800C04D6802
:100A7000ED006AD53A4DAE6946F00106AE61AD694A
:100A800024F0030605F001050095364D06EB050C34
:100A9000DCF80850A6074FEA167809FA08F6B543BD
:100AA000314EB04202D100261AE04EE02F4EB04245
:100AB00001D1012614E02E4EB04201D102260FE0F2
:100AC0002C4EB04201D103260AE02B4EB04201D198
:100AD000042605E0294EB04201D1052600E0062695
:100AE00006FA08F62E43CCF808604D68DAF8006084
:100AF000ED03554601D51E4300E09E432E604D6830
:100B0000AD0305D5DBF800601E43CBF8006004E0C0
:100B1000DBF800509D43CBF800504D68DEF80060D4
:100B2000ED02754601D51E4300E09E432E604D68E0
:100B3000AD0205D5084D0C352E681E432E6004E02D
:100B4000054E0C3635689D433560641C102CFFF44F
:100B500031AFBDE8F88F0000000401400000111023
:100B6000001002400000014000080140000C01405C
:100B7000001001400014014000180140001C014019
:100B80008068084000D001207047C2684A40C260B7
:100B900070470AB1016170470904FBE701488068AA
:100BA0007047000064000020024881680278114408
:100BB0008160704764000020074810B5016841F06B
:100BC00010010160032000F073F8002000F006F827
:100BD00000F024F8002010BD0020024070B50D4D3B
:100BE00004464FF47A712878B1FBF0F00A4909689D
:100BF000B1FBF0F000F04DFB48B9102C07D20022F9
:100C00002146501E00F034F800206C6070BD0120B9
:100C100070BD000064000020700000200C4808B582
:100C2000816941F001018161816901F00101009157
:100C3000C16941F08051C161C06900F080500090ED
:100C40000448416821F0E06141F00071416008BD55
:100C5000001002400000014000F01F0201219140FD
:100C60004009800000F1E020C0F80011704700004A
:100C7000F0B40E4B1B680C46C3F30223C3F1070507
:100C8000042D00D90425191D072901D2002300E0F5
:100C9000DB1E012606FA05F1491E214099409E40BF
:100CA000761E16403143F0BC01F01EBA0CED00E098
:100CB000064900F0070208684FF6FF03184040EAB3
:100CC0000220034A10430860704700000CED00E06A
:100CD0000000FA052DE9F047DFF8548105460E467D
:100CE000D8F8000000F00700B0420CD2D8F800108D
:100CF00021F007013143C8F80010D8F8000000F0D7
:100D00000700B0426FD128684A4C810712D54007CE
:100D100003D5606840F4E06060602878000703D580
:100D2000606840F4605060606068A96820F0F0007E
:100D3000084360602878C00744D06868012816D04E
:100D40002168022816D0890700294CDA616821F051
:100D5000030101436160FFF721FF6968074641F223
:100D6000883001290ED00229814618D026E021685A
:100D70008903E9E78901E7E7FFF710FFC11B494550
:100D800001D918E081466068C0F381000128F3D1E1
:100D900018E000BFFFF702FFC11B49450BD8606890
:100DA000C0F381000228F5D10CE000BFFFF7F6FE8A
:100DB000C11B494502D90320BDE8F087606810F0E7
:100DC0000C0FF3D1D8F80010404601F00701B142F2
:100DD0000BD9016821F0070131430160006800F080
:100DE0000700B04201D00120E6E72878400705D58A
:100DF0006068E96820F4E0600843606028780007D4
:100E000006D56068296920F4605040EAC10060603E
:100E100000F036F86168084AC1F30311515CC8401C
:100E2000064908600020FFF7D9FE0020C4E7000053
:100E300000200240001002402262000870000020E2
:100E40000448054900684968044AC1F30221515C1D
:100E5000C840704770000020001002403262000855
:100E60000448054900684968044AC1F3C221515C3D
:100E7000C840704770000020001002403262000835
:100E800012A185B00FC98DE80F0014A0144A0068A4
:100E900004905168134801F00C03042B10D0082B68
:100EA0000ED1C1F38343C9031DF803000AD551686D
:100EB00004AAC1F34041515C0A4A5043B0FBF1F02F
:100EC00005B0704708494843FAE7000002030405EB
:100ED000060708090A0B0C0D0E0F10100102000086
:100EE0000010024000127A0000093D0030B585B0C4
:100EF0000020029002200190032003900B4C4FF43D
:100F000080700090A0690D4640F00400A061A069C7
:100F1000694600F0040004900548FFF73DFD606855
:100F200020F0E0602843606005B030BD0010024052
:100F3000000801402DE9F84F04460078B94DC0077C
:100F400048D06868C0F38100012807D06868C0F302
:100F50008100022809D16868C00306D5286880038B
:100F600038D5606800286FD034E06068B0F5803F05
:100F70000BD010B1B0F5A02F11D0286820F480302C
:100F80002860286820F4802002E0286840F480303F
:100F90002860606888B1FFF701FE064609E028680E
:100FA00040F480202860F0E7FFF7F8FD801B6428FC
:100FB00075D828688003F7D50CE0FFF7EFFD0646EB
:100FC00005E000BFFFF7EAFD801B6428F0D8286821
:100FD0008003F7D42078944E80074FF001094FF03A
:100FE00000083BD5686810F00C0F07D06868C0F3A4
:100FF0008100022809D16868C00306D428688007E8
:1010000014D5206901281FD110E02069B0B1C6F8BD
:101010000090FFF7C3FD074605E000BFFFF7BEFDE8
:10102000C01B0228C4D828688007F7D528686169E2
:1010300020F0F80040EAC10028600FE0C6F8008008
:10104000FFF7ACFD074606E0E9E000BFFFF7A6FDAD
:10105000C01B022823D828688007F7D4207800070F
:101060002CD57248A169D9B1C0F80090FFF796FD60
:10107000074604E0FFF792FDC01B02280FD8686AFC
:101080008007F7D56A484FF4FA510068B0FBF1F0D9
:10109000009000BF0098411E0091FAD20EE080E05F
:1010A000C0F80080FFF77AFD074604E0FFF776FD01
:1010B000C01B022875D8686A8007F7D420784007DB
:1010C00060D5E8690027C00008D4E86940F0805086
:1010D000E861E869012700F08050009055480168F8
:1010E000C90513D40168834641F480710160FFF79C
:1010F00055FD824606E000BFFFF750FDA0EB0A0059
:1011000064284ED8DBF80000C005F5D5E06801285A
:101110000AD008B1052813D0286A20F001002862FF
:10112000286A20F0040002E0286A40F001002862EA
:10113000E06841F2883B98B1FFF730FD82460BE052
:10114000286A40F004002862EEE700BFFFF726FDA2
:10115000A0EB0A0159455AD8286A8007F6D50CE059
:10116000FFF71CFD824605E0FFF718FDA0EB0A0122
:1011700059454CD8286A8007F6D41FB1E86920F099
:101180008050E861E06988B36968C1F38101022990
:1011900045D00228C6F8608004D0FFF7FFFC044663
:1011A00038E034E0FFF7FAFC074604E0FFF7F6FC0E
:1011B000C01B02282BD828688001F7D4206AB0F51C
:1011C000803F05D16868A16820F40030084368605A
:1011D000D4E908010843696821F474110843686080
:1011E000C6F86090FFF7DAFC044606E015E000BFA1
:1011F000FFF7D4FC001B022809D828688001F7D526
:101200000BE000BFFFF7CAFC001B022802D9032035
:10121000BDE8F88F28688001F4D40020F8E70120A9
:10122000F6E7000000100240000042428004424203
:10123000700000200070004070B515460E46040096
:1012400003D094F83D0010B107E0012070BD0020EC
:1012500084F83C00204600F01AF804F108012068E8
:10126000FFF740FA3146A2682068FFF787FAD4E911
:1012700001022946236BFFF717FAA168206850F88E
:10128000212042F0010240F82120002070BDFFF72C
:1012900041BB10B5401EB0F1807F01D3012010BDCD
:1012A0004FF0E02460610F21601700F01DFF002067
:1012B000A06107202061002010BD30B590F83C20CF
:1012C000012A20D0012280F83C20022380F83D3002
:1012D00003685C6824F070045C6003685C680D68F7
:1012E0002C435C6003689C6824F080049C60036865
:1012F0009C6849680C439C6080F83D20002180F880
:101300003C10084630BD022030BD10B5040003D0AB
:1013100094F83D0010B107E0012010BD002084F8D2
:101320003C00204600F00CF8022084F83D00211D0E
:10133000206800F091FF012084F83D00002010BDDE
:1013400008B501680B48B1F1804F0BD00A4A9142B1
:1013500007D1C16941F00401C161C06900F0040016
:10136000009008BDC16941F00101C161C06900F090
:101370000100F5E7001002400008004070B5044687
:1013800090F83C00012817D0012584F83C50022039
:1013900084F83D002068826822F0770222F47F42C0
:1013A00082600868502837D00DDC202859D005DC31
:1013B00088B3102841D151E0022070BD302853D0AD
:1013C00040283AD13FE060282ED070280BD0B0F5ED
:1013D000805F03D0B0F5005F2FD110E020688168F6
:1013E00021F0070115E0CB68D1E90121206800F068
:1013F00084FF2168886840F0770088601DE0CB6832
:10140000D1E90121206800F078FF2068816841F46B
:101410008041816011E01EE0CA684968206801F0DF
:101420007FF85021206806E0CA684968206801F00A
:1014300088F86021206800F06AFF84F83D500020A1
:1014400084F83C0070BDCA684968206801F068F8FB
:1014500040212068EFE700212068ECE71021206898
:10146000E9E720212068E6E730212068E3E7000073
:1014700000B585B0002100910191029103910268AD
:1014800014480221B2F1804F14D0134B9A420FD16D
:10149000826942F0080282618069039100F00800CD
:1014A00004904020CDE9000169460C48FFF774FA2A
:1014B00005B000BD826942F0040282618069039137
:1014C00000F0040004900120CDE9000169460448C1
:1014D000ECE700000010024000080040000C014052
:1014E0000008014070B5044690F83C000D46012804
:1014F0000DD0012684F83C60022084F83D0042B102
:10150000042A18D0082A2AD00C2A4DD139E002200A
:1015100070BD206800F004FF2068816941F0080177
:1015200081612068816921F00401816120688169FD
:101530002A69114311E0206800F022FF20688169C8
:1015400041F4006181612068816921F480618161D9
:10155000206881692A6941EA0221816124E02068CA
:1015600000F044FF2068C16941F00801C1612068B2
:10157000C16921F00401C1612068C1692A69114370
:1015800011E0206800F066FF2068C16941F4006145
:10159000C1612068C16921F48061C1612068C169AD
:1015A0002A6941EA0221C16184F83D60002084F883
:1015B0003C0070BD10B5040003D094F83D0010B19C
:1015C00007E0012010BD002084F83C00204600F018
:1015D0000CF8022084F83D00211D206800F03CFE3C
:1015E000012084F83D00002010BD704710B504466E
:1015F0000068012200F076FE08492068884202D087
:101600000749884203D1416C41F40041416420689C
:10161000016841F001010160002010BD002C014073
:101620000034014010B504460068002200F05AFE64
:10163000114841F2111221689310814202D00F48E3
:10164000814209D1086A104206D1086A184203D1C2
:10165000486C20F4004048642068016A114206D1B9
:10166000016A194203D1016821F0010101600120E2
:1016700084F83D00002010BD002C014000340140E2
:1016800070B5044690F83C00012818D0012584F874
:101690003C50022084F83D00204600F003FF206803
:1016A000C16821F04001C1602068C16821F4804117
:1016B000C16084F83D50002084F83C0070BD0220D9
:1016C00070BD704770B5026804461068D1685369F0
:1016D00010F00F0F50D003F0010501F49076354360
:1016E0005DD0C20705D0CA0503D5E26B42F0010206
:1016F000E263420705D5DA0703D0E26B42F002024B
:10170000E263820705D5DA0703D0E26B42F00402F8
:10171000E263020705D5DA0703D0E26B42F0080264
:10172000E263E26B002A33D0800604D5880602D536
:10173000204600F035FF20684069E16BC0F380105F
:10174000090700D428B3204600F01CFF2068416937
:1017500049061AD5416921F040014161606BA0B191
:101760001B494163606BFFF72BF8002810D0606BBA
:10177000416BBDE870400847830610D58B060ED537
:101780002046BDE8704000F00BBF2046FFF799FFF0
:1017900070BD2046FFF795FF0020E06370BD030693
:1017A00006D50B0604D52046BDE8704000F0FCBF0E
:1017B0004006F3D54806F1D5D168204621F0400116
:1017C000D160202184F8391000F0ECF870BD0000E1
:1017D0007525000870B5040004D094F83900002580
:1017E00010B106E0012070BD84F83850204600F0AA
:1017F00023F8242084F839002068C16821F40051BE
:10180000C160204600F018FF2068016921F4904172
:1018100001612068416921F02A0141612068C168A5
:1018200041F40051C160E563202084F8390084F858
:101830003A00002070BD000070B586B0002400940E
:1018400001940294039403682E482D4E051502213D
:101850000322B34226D1C36943F40023C361C369A1
:1018600003F400230493836943F0100383618069C8
:10187000CDE9005100F01000CDE90320224D69466A
:101880002846FFF789F8E814CDE9000469462846A0
:101890000294FFF781F8002211463420FFF7E8F99F
:1018A000342028E0194EB34227D1836943F48043A2
:1018B0008361836903F480430493836943F00403E1
:1018C00083618069039200F0040004907015CDE9F3
:1018D00000010F4E69463046FFF75EF8CDE900542F
:1018E000694630460294FFF757F80022114625203A
:1018F000FFF7BEF92520FFF7AFF906B070BD000075
:10190000004C00400010024000100140003801402F
:101910000008014090F83A30202B22D1F9B1F2B101
:1019200090F83830012B1CD081628285C28500215D
:10193000C163222280F83A2080F838100168CA6812
:1019400042F48072CA6001684A6942F001024A6149
:101950000068C16841F02001C1600020704701208B
:1019600070470220704700000B4910B50878FF2827
:1019700004D30020087002F083FC04E0074B4A788F
:101980001A54401C087004490122BDE81040491C4B
:101990000348FFF7BFBF00003C00002014010020F7
:1019A000940200207047FEE7044B4FF4805108B1C9
:1019B000002200E001221846FFF7EBB800140140B6
:1019C00070B51D461446049E00F016F904FB05F0A0
:1019D0003146BDE8704000F0A9B8000070B5203A6B
:1019E000D4B21023082200F007F92C20C106088089
:1019F0000C490D4B01EB041500204FF6FF742A5CD7
:101A00000021D60702D01F261E8000E01C80491C42
:101A10005208C9B20829F4D3401CC0B21028EED332
:101A200070BD0000B24F000800000260F0B5203A1F
:101A30001C46D6B210230822059D00F0DDF82C20AC
:101A4000C10608800A490B4B002001EB0616002155
:101A5000325CD70701D01D8000E01C80491C520871
:101A6000C9B20829F5D3401CC0B21028EFD3F0BD8D
:101A7000B24F00080000026010B51446F02806D2EC
:101A8000B1F5A07F03D201231A4600F0B5F8214634
:101A9000BDE81040012000F049B80000F0B516463E
:101AA0000D4604464FF4A07714E000BF04F108008F
:101AB000F02802D900241035ADB205F11000B8426B
:101AC00001D90024254629462046FFF787FF083420
:101AD000A4B2761C3278002AE8D1F0BD2DE9F84393
:101AE000994616460D4604464FF4A077DDF820804F
:101AF00017E000BF04F10800F02802D900241035D7
:101B0000ADB205F11000B84201D9002425464B467C
:101B100029462046CDF80080FFF788FF0834A4B29C
:101B2000761C3278002AE5D1BDE8F88310B5002292
:101B30002C23DC062380034B01E01980521C8242D7
:101B4000FBD310BD0000026020494FF0C0420128C5
:101B500006D0022808D003280ED0042809D120E09E
:101B600036201080C8201FE036201080682006E054
:101B700008802C2010807047362010802820088094
:101B80002A201080002008800880012008803F2043
:101B900008802B2010800020088008800880EF201B
:101BA000E6E736201080482008802A201080002098
:101BB000088008800880EF2008802B2010800020FB
:101BC00008800880012008803F20D1E700000260E3
:101BD00008B50120FFF7E8FE00F0EAF800F02CF865
:101BE0004FF6FF70002100904FF4A073F0220846DA
:101BF000FFF7E6FE08BD000070B54FF0C0452A248F
:101C00002C800C4C060A2680C6B226801044401E4A
:101C1000020A2280C0B220802B202880080A20805F
:101C2000C8B22080C818401E010A2180C0B220809E
:101C300070BD00000000026000B54FF0C041CF2031
:101C400008805948002202808122028030220280CE
:101C5000ED220A8064220280032202801222028086
:101C600081220280E8220A808522028010220280DE
:101C700078220280CB220A80392202802C22028024
:101C8000002202803422028002220280F7220A808F
:101C900020220280EA220A80002202800280B122F1
:101CA0000A80002202801B220280B6220A800A22B9
:101CB0000280A2220280C0220A8035220280C12234
:101CC0000A8011220280C5220A80452202800280F9
:101CD000C7220A80A2220280F2220A800022028009
:101CE00026220A8001220280E0220A800F2202803E
:101CF00026220280242202800B2202800E220280F1
:101D00000922028054220280A822028046220280F8
:101D10000C22028017220280092202800F220280F8
:101D20000722028000220280E1220A800022028033
:101D3000192202801B2202800422028010220280CB
:101D4000072202802A220280472202803922028052
:101D50000322028006220280028030220280382282
:101D600002800F22028036220A80C82202802A22A4
:101D70000A800022028002800280EF2202802B2251
:101D80000A80002202800280012202803F2202801B
:101D90003A220A8055220280112008800348FEF76B
:101DA00078FC2920088000BD00000260FCBF020012
:101DB00070B50A4C002202212046FEF7EAFE084DCB
:101DC0002846FEF766FC012202212046FEF7E1FECE
:101DD0002846BDE87040FEF75CBC000000180140DA
:101DE000FCBF02002DE9FF4F9A46164683460025A8
:101DF0000D9F1FE005EB85004FEA001901980024B4
:101E000000EB050813E0002009EB44010B18401C0F
:101E1000FB5C022803EB022292B2F7DB0BEB04001F
:101E20001FFA88F180B2FFF727FE0022641CB4423B
:101E3000E9DB6D1C5545DDDBBDE8FF8F00B587B0E4
:101E40001C216846FEF72CFB15484FF0204110225C
:101E500001601449416000218160C160C0E9041241
:101E60008161C16113020162C0E90913C1620163AA
:101E7000416381630F20FF230090CDE90103CDE989
:101E800003021120CDE90501002269460448FFF74D
:101E9000D3F90548C16941F48061C16107B000BD53
:101EA00014030020040100A0000001402DE9F047C8
:101EB00086B00024414800940194029403948169FF
:101EC00041F040018161816901F040010491816923
:101ED00041F010018161816901F010010491816973
:101EE00041F004018161816901F00401049181697B
:101EF00041F008018161816901F008010491816963
:101F000041F0200181618069DFF8B48000F0200099
:101F10000490002207214046FEF73BFEDFF8A49024
:101F2000012223214846FEF734FEDFF89CA04FF43F
:101F30004057002239465046FEF72BFE0720012568
:101F40000326CDE90005CDE9024669464046FEF785
:101F500023FD08208DE8310069464046FEF71CFD50
:101F6000102000901948CDE9010569464046FEF76A
:101F700013FD2320CDE90005CDE902466946484618
:101F8000FEF70AFD00970396CDE9015469465046D5
:101F9000FEF702FD2802009002200190039069469E
:101FA0000B48FEF7F9FC002211460A20FEF760FEFE
:101FB0000A20FEF751FE06B0BDE8F087001002408F
:101FC00000180140000C01400014014000002110E5
:101FD0000008014010B58EB00024079408940994BD
:101FE0000A940B941C2168460C94FEF759FA174882
:101FF0004FF08041C0E9001440F2AF41C0E9024116
:1020000004618461FFF781F94FF48050079007A9BC
:102010000E48FFF7B3F90D48FFF7CCFA20200B90DC
:1020200080200C900BA90948FFF747F96020009029
:102030001020CDE901040022694604480494FFF70A
:1020400051FA0248FFF714FA0EB010BD1402002036
:1020500030B58FB00546142107A8FEF721FA0024F9
:102060000C941C2168460D94FEF71AFA1B491A4875
:10207000C1E900044EF66020B0FBF5F08C60C1E9C8
:10208000030408468C61FFF740F91448FFF792FA01
:10209000052007901020089007A91048FFF7F0FAD4
:1020A0000C940CA90D480D94FFF707F960200090DF
:1020B0000B484FF496710022C068484390FBF5F03E
:1020C000CDE90104694605480494FFF70BFA03487B
:1020D000FFF7CEF90FB030BD0008004054020020D9
:1020E0003C000020FEE770470907090E002806DAC9
:1020F00000F00F0000F1E02080F8141D704700F19F
:10210000E02080F8001470477047000010B50021EF
:102110001848FFF787FA6420FEF7EAFB7D21C42008
:1021200002F05CF87D21DC2002F058F87D2140F2BD
:10213000051002F053F87D21DC2002F04FF840F248
:1021400045110C1D204602F049F83220FEF7D0FB65
:1021500040F27711204602F041F840F2EE2140F2C1
:10216000251002F03BF8BDE8104000210148FFF7C0
:1021700059BA0000540200200B480A490160483156
:102180004160483181604831C160084801684A694E
:1021900042F001024A610068C16841F02001C1605B
:1021A000704700005803002054000020D402002093
:1021B0007047FEF7F9BC30B58FB028216846FEF7AE
:1021C0006FF914210AA8FEF76BF901210804CDE983
:1021D00000100024029402250491CDE907504FF429
:1021E000E01009906846FEF7A5FE0F20CDE90A052C
:1021F0006802CDE90C4002210AA80E94FEF76AFDA0
:1022000000224FF0E0611046FEF770FE0FB030BDC7
:102210000D48016841F00101016041680B4A11401D
:10222000416001680A4A11400160016821F480217F
:102230000160416821F4FE0141604FF41F0181609B
:102240000449C00308607047001002400000FFF816
:10225000FFFFF6FE08ED00E0F0B502681C4B1D4DD7
:102260001D4E1E4F1E4C4FF0804C984209D0A0428C
:1022700007D0604505D0A84203D0B04201D0B84293
:1022800004D122F0700E4A6842EA0E02984209D048
:10229000A04207D0604505D0A84203D0B04201D08B
:1022A000B84203D122F44075CA682A4322F080055F
:1022B0004A692A4302608A68C2620A688262984256
:1022C00001D0A04201D10969016301214161F0BD42
:1022D000002C01400004004000080040000C0040B9
:1022E0000034014010B50123046A8B409C43046212
:1022F000036A8A401343036210BD10B5846842EA42
:10230000032224F47F440A432243826010BD826882
:1023100022F070020A4342F007018160704700001A
:10232000F0B5026A22F001020262036A426884691F
:10233000124E24F073050C682C4323F002058B68C1
:102340002B430D4DA84201D0B04205D123F0080720
:10235000CB683B4323F00403A84201D0B04205D12F
:102360004D6922F4407215438A692A4342608461B0
:10237000496841630362F0BD002C01400034014014
:10238000F0B5026A22F010020262026A43688469B0
:102390000D6824F4E64444EA05248D6822F0200206
:1023A00042EA05120F4D104EA84201D0B04206D1AC
:1023B000CF6822F0800242EA071222F04002A842CF
:1023C00001D0B04207D14D6923F4406343EA85034D
:1023D0008D6943EA850343608461496881630262D1
:1023E000F0BD0000002C014000340140F0B5026A4D
:1023F00022F480720262026A4368C46922F40072A5
:1024000024F073050C68124E2C438D6842EA0522B5
:102410000E4DA84201D0B04206D1CF6822F400622E
:1024200042EA072222F48062A84201D0B04207D1DA
:102430004D6923F4405343EA05138D6943EA0513BC
:102440004360C4614968C1630262F0BD002C014071
:102450000034014030B5026A22F480520262046AFC
:102460004268C3690D6823F4E64343EA05238D6897
:1024700024F4005444EA0534084DA84202D0084D23
:10248000A84204D14D6922F4804242EA851242609A
:10249000C36149680164046230BD0000002C014042
:1024A0000034014030B403689A6822F070044A682E
:1024B000224322F007040A6822439A604A6812F015
:1024C0000F0F1FD11211082A1CD2DFE802F01B1BCC
:1024D0001B1B0B1D23040B69D1E90221006830BCD2
:1024E000FFF70BBF0268136A146A24F00104146238
:1024F00002689469096924F0F00444EA01119161C9
:102500000068036230BC70470A698968006830BCA3
:1025100000F006B80A698968006830BC00F011B89C
:1025200010B5036A046A24F001040462846924F08B
:10253000F00444EA021423F00A020A4384610262AE
:1025400010BD10B5036A23F0100303628369046AA7
:1025500023F4704343EA023224F0A00343EA01115A
:102560008261016210BD00000148FFF7ABB80000B6
:102570009402002010B5406A0021C185C184FFF794
:10258000A0F810BD0168CA6822F49072CA600168A0
:102590004A6922F001024A61202180F83A1070470E
:1025A00010B590F83A10222901D0022010BD8168A0
:1025B000B1F5805F11D00169002901681FD0496819
:1025C00001F07F03816A4A1C82620B70C18D491E33
:1025D0000904090CC18518D02BE00269816A002A20
:1025E0000268526805D0D2B20A80816A491C8162B1
:1025F000ECE7C2F308020A80816A891CF7E74A689F
:10260000816A4B1C83620A70E0E70168CA6822F0A5
:102610002002CA600168CA6822F48072CA60016838
:102620004A6922F001024A61202180F83A10FFF73E
:102630009BF9002010BD00002DE9F0410446006820
:102640000169E26821F44051114301612169A068E8
:102650000843616908432168CA6841F20C639A43E0
:102660000243CA6020684169A26921F440711143A4
:1026700041614C4920686425322688423CD1FEF7EE
:10268000EFFB00EBC00101EB001061688900B0FBBB
:10269000F1F7FEF7E5FB00EBC00101EB001061680C
:1026A000B0468900B0FBF1F0B0FBF5F06FF0180117
:1026B000484307EB800106EB0110B0FBF5F000F09A
:1026C000F006FEF7CDFB00EBC00101EB00106168E6
:1026D0008900B0FBF1F0B0FBF5F006EB0016FEF759
:1026E000BFFB00EBC00101EB001061688900B0FB8B
:1026F000F1F7FEF7B5FB3BE0FEF7A2FB00EBC001F4
:1027000001EB001061688900B0FBF1F7FEF798FB60
:1027100000EBC00101EB00106168B0468900B0FB1E
:10272000F1F0B0FBF5F06FF01801484307EB8001C2
:1027300006EB0110B0FBF5F000F0F006FEF780FBB1
:1027400000EBC00101EB001061688900B0FBF1F003
:10275000B0FBF5F006EB0016FEF772FB00EBC001D4
:1027600001EB001061688900B0FBF1F7FEF768FB30
:1027700000EBC00101EB001061688900B0FBF1F0D3
:10278000B0FBF5F06FF01801484307EB800108EB50
:102790000110B0FBF5F0216800F00F0030448860B4
:1027A000BDE8F0810038014090F83910212901D0AE
:1027B000022070478168B1F5805F016A0BD04A1C26
:1027C0000262026809785160C18C491E0904090C33
:1027D000C1840ED017E009880268C1F30801516076
:1027E00001690029016A02D0491C0162ECE7891CD9
:1027F000FBE70168CA6822F08002CA600068C1680D
:1028000041F04001C160002070470000014800F025
:1028100003B80000D402002030B402681368D16805
:10282000154C9D060CD58D060AD511685168A0423D
:10283000CAB214D11148816830BC104601F012B9F7
:102840001B060CD509060AD5A04208D10C490B6C11
:102850004C6CA34205D1D06820F08000D06030BC21
:1028600070474A6C4B6C8A5C5B1C03F03F034B6403
:10287000006801684260F2E7D402002054000020A2
:102880003004002030B50D46044603E02946641CA0
:1028900000F004F820780028F8D130BD10B50028E9
:1028A00013DB0A4A914210D10949C9680B6C5B1CC1
:1028B00003F03F034C6C9C42FCD00C6C08550B643D
:1028C0001068C16841F08001C16010BDD4020020D1
:1028D00054000020FEE701B5002004E00B21491E52
:1028E000C9B2FCD2401C00998842F7D308BD2DE93B
:1028F000F84380460C460127684600F06FF8E0B3C5
:10290000BDF8020001F0B7FED4E9022301F0C6FED3
:1029100005460E46BDF8000001F0ADFED4E90023E7
:1029200001F0BCFE2A46334601F0D0FDD4E9042371
:1029300001F0CCFD01F072FEA8F80000BDF8020025
:1029400001F099FED4E9082301F0A8FE05460E46E1
:10295000BDF8000001F08FFED4E9062301F09EFED1
:102960002A46334601F0B2FDD4E90A2301F0AEFD58
:1029700001F054FEA8F8020001E0FFE70027384606
:10298000BDE8F88370B500F0D3F8134E00252A4651
:1029900004213046FEF7FDF8012211463046FEF7CD
:1029A000F8F80024002201213046FEF7F2F8082151
:1029B0003046FEF7E5F8C4F10B018840284385B2A4
:1029C000012211463046FEF7E4F8641CE4B20C2CF8
:1029D000E8D3284670BD000000180140F0B58DB066
:1029E0000546002628216846FDF75AFD464F6C46ED
:1029F0000BA90AA800F08CF8BDF8280024F81600EE
:102A000004EB4600BDF82C108182761CF6B2102132
:102A10003846FEF7B5F808B90A2EE9D31021384632
:102A2000FEF7AEF810B13949002008700A2E02D026
:102A300000200DB0F0BDBDF90010BDF914008C46AA
:102A4000624603465FF0010634F916708F4201DAE0
:102A5000394602E0974200DD3A46761CF6B20A2E6D
:102A6000F2D3012604EB4607B7F914709F4201DA4E
:102A70003B4602E0874200DD3846761CF6B20A2E5D
:102A8000F0D3BDF90240BDF90460BDF9067064449D
:102A90003E443444BDF908603444BDF90A6034440E
:102AA000BDF90C603444BDF90E603444BDF91060CA
:102AB0003444BDF912603444611A891AC908298066
:102AC000BDF91410BDF91620BDF91A401144BDF925
:102AD000182022441144BDF91C201144BDF91E20C8
:102AE0001144BDF920201144BDF922201144BDF943
:102AF00024201144BDF926201144C91A081AC0081F
:102B00006880012095E700000018014000000020C7
:102B100070B506460D469020FFF734FF04460120AD
:102B2000FFF7D9FED020FFF72DFF3480288070BD3D
:102B300070B5174D0646002204212846FEF729F8F5
:102B4000002201212846FEF724F80024C4F10700E2
:102B500026FA00F0C00701D0012200E00022042183
:102B60002846FEF716F80520FFF7B5FE01221146AC
:102B70002846FEF70EF80520FFF7ADFE00220121E2
:102B80002846FEF706F8641CE4B2082CDED370BDBC
:102B90000018014030380A2801D201207047002077
:102BA000704700002DE9F84F83464FF6FF709046BE
:102BB00000908A46642332225846FEF701FF1F2404
:102BC0000BF123064FF02A090AF154070AF12A05EE
:102BD000B8F10A0F59D2DFE808F00519213B5A660F
:102BE000819CA7B20F233222514658460094FEF72B
:102BF000E7FE0F226423514658460094FEF7E0FE9C
:102C00000AF155000F2381B200944AE00BF1110044
:102C10000F2280B200946423514634E00F23322205
:102C2000514658460094FEF7CBFE0F22B0B24B46F9
:102C300051460094FEF7C4FE0F23A9B23222584633
:102C40000094FEF7BDFE0F22A9B24B46009411E09E
:102C50000F233222514658460094FEF7B1FE0F2250
:102C6000B0B2642351460094FEF7AAFE0F23A9B226
:102C7000322200944FEA0B00FEF7A2FE0F23B9B2F6
:102C8000322258460094FEF79BFEBDE8F88F4B4673
:102C90000F22514658460094FEF792FE0F23A9B228
:102CA0000094322239E00F233222514658460094D4
:102CB000FEF786FE0F224B46514658460094FEF71B
:102CC0007FFE0F23A9B2322258460094FEF778FE09
:102CD0000F22A9B2B0B24B460094CDE70F233222A7
:102CE000514658460094FEF76BFE0F22642351466E
:102CF00058460094FEF764FE0F23A9B232225846CC
:102D00000094FEF75DFE4B460F22A9B2B0B20094CC
:102D1000B2E70F233222514600945846FEF750FE88
:102D20000F22B0B2009476E70F2332225146584664
:102D30000094FEF745FE0F226423009409E00F2360
:102D40003222514658460094FEF73AFE4B460F2277
:102D5000009451465846FEF733FE0F23A9B23222A3
:102D600058460094FEF72CFE0F22B0B26423514661
:102D7000009481E77FB544F6185500214FF4A07305
:102D8000F02208460095FEF71BFE4FF6FF742B4617
:102D90001DA2902134200094FEF7A0FE2B461FA216
:102DA000A42114200094FEF799FE012001F05CF8A4
:102DB0000B2121A24DF66E30CDE90021CDE90204B0
:102DC0004FF48C751423642229460A2000F042F83F
:102DD0000C211CA26010CDE90021CDE902041423CE
:102DE00064222946822000F035F8012000F05AF8CC
:102DF000012807D0012000F055F80228F5D1002065
:102E000004B070BD0720FBE753686F7274206272D4
:102E100065616B20656E64732100000054696D6507
:102E200020746F20676574206261636B20746F206B
:102E3000776F726B210000005374617274207469A3
:102E40006D6572004261636B20746F206D656E75F5
:102E5000000000002DE9F84F17460AAA1C4692E828
:102E6000200E0E4680469BB2BAB2CDF800A0FEF707
:102E7000A7FDC9F1000007EBC000103C00EBD072C9
:102E800004EBD47108EB620006EB610189B280B2F9
:102E900053462A46CDF800B0FEF720FE0020BDE8DC
:102EA000F88F000010B5044600F0E0FC002819D0AF
:102EB0001D49881EFFF72CFE1B49881E01F0A2F950
:102EC0001949891E012C02D0022C0CD029E0B1F93D
:102ED0000200A0F58C7014280BD922E082386428F7
:102EE0001FD8022010BDB1F90200A0F58C72142A7F
:102EF00007D8B1F90000A0F10A016429EED8012039
:102F000010BDA53819280CD8B1F90000DC2801DD66
:102F1000DC2002E0142801DA14200880B1F9000056
:102F200010BD002010BD00003A0000207FB54DF616
:102F30006E3500214FF4A073F02208460095FEF78D
:102F40003FFD4FF6FF742B4620A290213C200094B9
:102F5000FEF7C4FD2B4622A2A4210C200094FEF70C
:102F6000BDFD2B4625A2B8210C200094FEF7B6FD2E
:102F7000002000F079FF44F618500B2526A1CDE97A
:102F80000015CDE902044FF48C76142364223146F7
:102F90000A20FFF75FFF601022A1CDE90015CDE9FF
:102FA00002041423642231468220FFF753FF0120DC
:102FB000FFF778FF012807D00120FFF773FF0228F1
:102FC000F5D1002004B070BD0620FBE7466F6375A5
:102FD000732074696D6520656E64732100000000C4
:102FE00054696D6520746F2074616B652061207376
:102FF000686F727420627265616B21005265706F38
:103000007274206973207265616479206F6E20503C
:103010004320736964652100537461727420627285
:1030200065616B004261636B20746F206D656E7526
:10303000000000002DE9F8434FF6FF7400214FF423
:10304000A073F02208460094FEF7BAFC2248282319
:1030500000901A4678216420FEF7C4FE1FA2B42116
:103060005C20FEF71BFD1F2000901E23A022C8211C
:103070002820FEF7A5FC14239622CD212D200094B4
:10308000FEF79EFC00242D264FF4FC6705254FF02B
:10309000940800BF04EB840006EB400080B21423C8
:1030A0000A22CD210097FEF78BFC94FBF5F005FB7F
:1030B0001040042808D194FBF5F108EBC10080B260
:1030C00008A2B421FEF7EAFC3220FDF711FC641CD3
:1030D0000F2CDFDBBDE8F883A25500084C6F61645C
:1030E000696E67002E000000E8B0FDF765FDFFF790
:1030F00062F8FEF7DBFEFEF7A1FEFEF76BFF4FF472
:103100008070FEF7A5FFFF48FD494FF00009016000
:103110004FF46141C0E901190C25C0F80C90C0E9D9
:103120000495C0F818904C46C0F81C90FEF752FB6E
:10313000F448F549403001604FF4E131C0E9011431
:10314000C460C0E904458461C461FEF743FB00220A
:103150004FF40051ED48FDF71CFDFEF739FDE9483D
:1031600000218038FEF742FA0120FEF7EDFC002531
:10317000ADF80440E64F87F8274087F82840032041
:1031800087F82A000122E349DE48FEF7C3FBFEF779
:10319000F3FFDFF884A3DFF884B34FF6FF76B84679
:1031A000D8F82C20DEA117A8FDF73AF801215F46D8
:1031B0005846FDF7EAFCD34917A84031FFF762FBF8
:1031C0006420FDF795FB9AF800005446012803D1CE
:1031D000FDF742FA84F800903220FDF789FB082DB4
:1031E0007ED2DFE805F0050C19EEED04EC0ED7E712
:1031F00020213846FDF7C9FC00F024FA0AE0FFF769
:1032000019FFC4484946401EC0F80890D0F8040091
:1032100000F034FC0546C3E700214FF4AA73F02206
:1032200008460096FEF7CCFBBE4D0021BEA2084624
:10323000FEF734FCBEA220210020FEF72FFCC0A226
:1032400040210020FEF72AFCBDA240211420FEF7F9
:1032500025FCBCA240212820FEF720FCBAA2402178
:103260003C20FEF71BFCBAA240216420FEF716FCAE
:10327000B8A240217820FEF711FCB7A240218C2093
:10328000FEF70CFCB5A24021A020FEF707FCB5A27A
:1032900078210020FEF702FCA2480022B4A1503899
:1032A000FCF7BEFF00249F482A5DB2A15038FCF70E
:1032B000B7FF9C4A0021503A6420FEF7EFFB2A5DDD
:1032C000AA2A70D12F197878AA286CD1B878042846
:1032D00066D19448A7A15038FCF7A2FF914A00E0BC
:1032E0006BE0503A60210020FEF7D8FB8D487A78D9
:1032F000A0A15038FCF794FF8A4A6021503A14206C
:10330000FEF7CCFB8748BA789AA15038FCF788FFC3
:10331000844A6021503A2820FEF7C0FB8148FA78A1
:1033200094A15038FCF77CFF7E4A6021503A3C2043
:10333000FEF7B4FB7B483A798EA15038FCF770FF5A
:10334000784A6021503A6420FEF7A8FB75487A79E4
:1033500088A15038FCF764FF724A6021503A782007
:10336000FEF79CFB6F48BA7982A15038FCF758FFF2
:103370006C4A6021503A8C20FEF790FB6948FA793C
:103380007CA15038FCF74CFF664A6021503AA020DF
:10339000FEF784FB285DAA2805D17878AA2802D1F7
:1033A000B87820280ED0641CFF2C7FF77CAF01205A
:1033B000FFF778FD00283FF438AF0025F0E633E151
:1033C0002FE122E10027E0196AA12A5C5548503814
:1033D000FCF726FF534A07EBC70006EA4000503AC5
:1033E000E821FEF75BFB7F1C0D2FECDB0D27E019BE
:1033F00060A12A5C4B485038FCF712FFA7F10D0082
:10340000484A00EBC00006EA4000503A4FF484718D
:10341000FEF744FB7F1C192FE9DB1927E01955A1A2
:103420002A5C40485038FCF7FBFEA7F119003D4AE2
:1034300000EBC00006EA4000503A4FF49471FEF7EA
:103440002DFB7F1C242FE9DB00210846474622186C
:103450002A44D2783A541144401C89B22028F6DB21
:10346000C8432919C0B291F8231081421FD178783E
:1034700087F82400797F87F82510F97F87F82610D0
:103480001D2811D036280FD037280DD038280BD062
:10349000502809D0512807D0522805D06B2803D0D6
:1034A000C82801D0012000E0484687F8280033A250
:1034B00096210020FEF7F2FA97F824202DA12CA8DF
:1034C000FCF7AEFE2CAA96217820FEF7E7FA2DA293
:1034D000AA210020FEF7E2FA97F8252025A103A8EB
:1034E000FCF79EFE03AAAA217820FEF7D7FA28A2AD
:1034F000BE210020FEF7D2FA97F826201DA14BE04E
:10350000004C0040940200200038014000140140AB
:10351000780400203D00002000000020000C014045
:1035200025750A0014010020446174613A0000000E
:10353000736D616C6C207061636B65743A000000A0
:1035400053590000504C0000434F44450000000018
:10355000564C0000563100005632000043484B5391
:10356000554D0000426967207061636B65743A00D5
:103570002564000025303278000000005369676E32
:10358000616C3A00417474656E74696F6E3A000044
:1035900052656C61783A000040A8FCF741FE40AAF1
:1035A000BE217820FEF77AFA22A278216420FEF765
:1035B00075FA97F8282021A154A8FCF731FE54AAE7
:1035C00078219620FEF76AFA787BB97B000440EAFE
:1035D0000120F97B0843F862387C797C000440EADA
:1035E0000120B97C08433863F87C397D000440EA47
:1035F0000120797D08437863B87DF97D000440EAB5
:103600000120397E0843B863D1E600F05FFC0A224E
:1036100090FBF2F302FB130590FBF2F008494860BF
:10362000BEE500F0A3FEF5E50548012181604FF4F9
:10363000FA70EDE5576561723A00000025780000E8
:103640003C0000207FB54DF66E3400214FF4A0738E
:10365000F02208460094FEF7B3F94FF6FF752346B3
:1036600036A2082110200095FEF738FA3A482823A0
:10367000642100901A460846FEF7B4FB052037A1E6
:10368000CDE90010CDE902541423B422DC211E2020
:10369000FFF7E0FB0A2633A0CDE90006CDE902548E
:1036A0001423B422F5211E20FFF7D4FB30A0CDE96E
:1036B0000006CDE902541423B42240F227111E2043
:1036C000FFF7C8FB0E202DA1CDE90010CDE9025473
:1036D0001423B4224FF487711E20FFF7BBFB2B4C41
:1036E00000F0C4F80028FBD02849891C881EFFF789
:1036F0000FFA2649891C881E00F084FDB4F90000E9
:103700001E38B428ECD8B4F90200A0F1DC01142969
:1037100002D8012004B070BDA0F1F501142901D830
:103720000220F7E7A0F58771142901D80320F1E7FB
:10373000A0F227101428D3D80420EBE757656C6358
:103740006F6D6520746F20506F6D6F646F726F20A6
:1037500054696D6572210000A255000854696D65B9
:10376000720000004465627567206D6F646500003B
:1037700053657420766F6C756D6500005365742019
:10378000796F75722074696D6572000038000020D1
:103790002DE9F04100213448FDF744FF6420FDF796
:1037A000A7F840F277156E1F2946304600F016FD47
:1037B0007D20FDF79DF84FF4DC77FA21384600F0C4
:1037C0000DFD4FF4FA74214640F22A2000F006FD68
:1037D0002146384600F002FDFA21304600F0FEFC9A
:1037E0004FF49378BC21404600F0F8FC3E20FDF7F2
:1037F0007FF8BC21404600F0F1FC3E20FDF778F850
:10380000BC21404600F0EAFC40F21A60FDF770F877
:10381000FA21404600F0E2FCFA21304600F0DEFCDE
:103820002946384600F0DAFC7D20FDF761F8FA21E0
:10383000304600F0D3FC2046FDF75AF8690040F20C
:10384000932000F0CBFCFA2140F26E2000F0C6FC81
:103850007D2140F24B2000F0C1FCBDE8F041002189
:103860000148FDF7DFBE00005402002008B568469D
:10387000FFF7B4F8002800D0012008BD2DE9FF476C
:1038800005464DF66E364FF4A07700213B46F022F8
:1038900008460096FEF794F84FF6FF7433464CA2A4
:1038A000B42100200094FEF719F9334653A2DC211D
:1038B00010200094FEF712F9092157A24FF4FC6082
:1038C000CDE90021CDE902044FF48C781423642261
:1038D000464641460A20FFF7BDFA072251A34FF0A2
:1038E00000094FF2DE71CDE90032CDE9021914234F
:1038F000642231468220FFF7ADFA0120FFF7D2FAA9
:10390000012807D00120FFF7CDFA0228F5D104B035
:10391000BDE8F08700213B46F02208460094FEF700
:103920004FF842A208212420FEF7B8F845A2312121
:103930003420FEF7B3F845A23121B220FEF7AEF8ED
:103940004FF4167095FBF0F246210520FFF72AF997
:103950003C2695FBF6F00A2790FBF7F107FB1102D6
:1039600046213046FFF71EF995FBF6F006FB105096
:1039700090FBF7F246218220FFF714F995FBF6F051
:1039800006FB105090FBF7F107FB11024621B9200E
:10399000FFF708F947F6FF7105252EA2CDE90025AE
:1039A000CDE9021914236422464641460A20FFF756
:1039B00051FA4FF4784029A1CDE90015CDE9020470
:1039C0001423642231468220FFF744FA01209EE747
:1039D0004974207365656D73207468617420746820
:1039E0006572652069732061206269742E2E4469B6
:1039F000737472616374696F6E0000004B6565706B
:103A00002069742075702120596F752063616E20C4
:103A1000646F206974210000436F6E74696E756570
:103A20002100000053746F702E2E2E004E6F7720F1
:103A30006974732074696D6520746F20776F726B81
:103A4000210000004D696E3A000000005365633AA2
:103A500000000000506175736500000053746F70C2
:103A6000210000000A6C4B6C521C02F03F02934292
:103A700002D00B6CC8540A64704700002DE9F04F67
:103A800085B0884604464FF6FF7A00214FF4A073B4
:103A9000F0220846CDF800A0FDF792FF0122232175
:103AA000C148FDF776F8642094FBF0F194FBF0F741
:103AB00000FB1145C7EB0710002605EB8004B8F1A9
:103AC000000F03D0B8F1010F04D008E00821B7A21D
:103AD000242002E0BBA208211820FDF7DFFFC0A2CE
:103AE00031213420FDF7DAFFBFA23121B220FDF7EA
:103AF000D5FF4FF00A0997FBF9F246210520FFF7A1
:103B000051F897FBF9F109FB117246213C20FFF7B0
:103B100049F895FBF9F246218220FFF743F895FB1F
:103B2000F9F109FB11524621B920FFF73BF81F2597
:103B300004231A466A2176200095FDF741FF0423ED
:103B40001A46822176200095FDF73AFF4FF0000BD0
:103B500047F6FF700525A6A2CDE90025CDE9020BA9
:103B60004FF48C771423642239460A20FFF772F948
:103B70004FF47840A0A2CDE90025CDE9020A142334
:103B8000642239468220FFF765F9DFF87492F0E08D
:103B90004FF4167094FBF0F246210520FFF702F86F
:103BA0003C2794FBF7F00A2590FBF5F105FB110289
:103BB00046213846FEF7F6FF94FBF7F007FB10406E
:103BC00090FBF5F246218220FEF7ECFF94FBF7F024
:103BD00007FB104090FBF5F105FB11024621B920CF
:103BE000FEF7E0FF87482040012802D0E00702D01E
:103BF00010E01F2500E0554604231A466A2176206E
:103C00000095FDF7DDFE04231A46822176200095FB
:103C1000FDF7D6FE0027641E55E0012F53D1D9F8D9
:103C2000000000284FD100F02BFB774D95F82400C1
:103C300010B1C82813D01BE0012220215A48FCF7FC
:103C4000A8FF002201215848FCF7A3FF2023F022FF
:103C5000B4210020CDF800A0FDF7B2FE08E06BA271
:103C6000B4210020FDF71AFF20214F48FCF78DFFFB
:103C700015F8243FAA78697868690DF1040C8CE87E
:103C80000F0028690090EB68AA686CA17148FCF7E6
:103C9000C7FA71496F48FEF7F5FD687819280AD20E
:103CA000761C1E2E0FDD2046FFF7E8FD022804D00B
:103CB000012808D105E0002605E0002005B0BDE898
:103CC000F08F002602270120FFF7ECF8012805D02D
:103CD0000120FFF7E7F8022843D043E008225FA362
:103CE00047F6FF71CDE90032CDE9021B14236422AF
:103CF0004FF48C710A20FFF7ADF84FF2DE71052505
:103D00003DA2CDE90025CDE9021A142364224FF427
:103D10008C718220FFF79EF86420FCF7E9FD0120FA
:103D2000FFF7C0F80128FAD147F6FF7030A2CDE9BD
:103D30000025CDE9020B142364224FF48C710A2074
:103D4000FFF788F84FF478402BA2CDE90025CDE9A4
:103D5000020A142364224FF48C718220FFF77AF850
:103D600000E000245320FCF7C3FD7F1C0A2FFFF660
:103D700054AF002CBFF60CAFB8F1000F05D0B8F16E
:103D8000010F0AD04FF0FF3098E70121C9F8001069
:103D900005B0BDE8F04FFFF7C9B8C9F800B005B0ED
:103DA000BDE8F04FFEF7E6BF000C01404E6F7720F4
:103DB0006974732074696D6520746F20776F726BFE
:103DC000210000004C657427732074616B652061CD
:103DD00020676F6F6420627265616B2100000000D4
:103DE0004D696E3A000000005365633A0000000020
:103DF000506175736500000053746F7021000000FE
:103E0000440000200100008078040020506C6561AF
:103E1000736520636865636B20696620746865203C
:103E200073656E736F722069732077656C6C2065A3
:103E3000717569707065642E00000000257520257D
:103E4000752025752025752025752025752025755B
:103E50000A00000074000020D4020020436F6E743A
:103E6000696E7565000000002DE9F04105460021EE
:103E70001548FDF7D7FB6420FCF73AFD002440F21B
:103E8000E73640F28A276421304600F0A7F99620F1
:103E9000FCF72EFD6421304600F0A0F93846FCF70F
:103EA00027FD641C032CEEDB15B1012D03D004E0CB
:103EB000FEF72CF901E0FFF76BFCBDE8F0410021B3
:103EC0000148FDF7AFBB0000540200202DE9FF4779
:103ED0004FF6FF7400214FF4A073F02208460094BF
:103EE000FDF76EFDACA208212820FDF7D7FDB0A29A
:103EF00028212E20FDF7D2FDAFA22821A220FDF718
:103F0000CDFD4FF0010AAEA200254FF01F09CDE90B
:103F1000002ACDE90294A8462F462E4614233222C9
:103F200046210820FEF796FFA5A2CDE9002ACDE99B
:103F300002941423322246214220FEF78BFFA0A2D6
:103F4000CDE9002ACDE902941423322246217C20B7
:103F5000FEF780FF9AA2CDE9002ACDE9029414234E
:103F600032224621B620FEF775FF00226421082088
:103F7000FEF718FE002264214220FEF713FE002205
:103F800064217C20FEF70EFE00226421B620FEF79D
:103F900009FE8CA2CDE9002ACDE902941423322235
:103FA000D2210820FEF756FF86A2CDE9002ACDE9EE
:103FB000029414233222D2214220FEF74BFF81A229
:103FC000CDE9002ACDE9029414233222D2217C20AB
:103FD000FEF740FF7BA2CDE9002ACDE9029414232D
:103FE0003222D221B620FEF735FF052176A2CDE997
:103FF0000021002447F6FF79CDE9029414236422BE
:10400000FA214620FEF726FF062171A2CDE9002104
:10401000CDE902944FF48C7A142364225146462051
:10402000FEF718FFA1466C4CA4F80090A4F802908B
:10403000FFF71CFC48B16849891C881EFEF768FD23
:104040006549891C881E00F0DDF8B4F900000838C5
:10405000322818D8B4F90200A0F14601142904D876
:104060006D1C0A2D07D1092505E0D23814280AD87D
:104070006D1E00D500252A4664210820FEF792FD1A
:104080003220FCF735FCB4F90000423832281ED843
:10409000B4F90200A0F14601142906D808F1010084
:1040A00080460A280BD1092008E0D23814280ED8FF
:1040B000A8F101005FEA000801D500208046024611
:1040C00064214220FEF76EFD3220FCF711FCB4F9AA
:1040D00000007C38322818D8B4F90200A0F146015B
:1040E000142904D87F1C062F07D1052705E0D238F4
:1040F00014280AD87F1E00D500273A4664217C2068
:10410000FEF750FD3220FCF7F3FBB4F90000A0F1FC
:10411000B601322919D8B4F90200A0F146011429D8
:104120000CD8761C0A2E00D1092632466421B6200E
:10413000FEF738FD3220FCF7DBFB75E7D238142898
:10414000FBD8761EF1D50026EFE746386428F4D870
:10415000B4F90200FA2818DBB0F5877F15DC42F2CB
:104160001070454308EB4801C1EBC81007EBC701CD
:1041700005EBC00001EB071100EB810006EB8601A7
:1041800000EB410004B0BDE8F0875045D5DBB0F549
:10419000967FD2DC0020F5E753657420796F757245
:1041A0002074696D657220686572652E00000000DC
:1041B0004D696E3A000000005365633A000000004C
:1041C0005E00000076000000456E7465720000001D
:1041D00052657475726E00003800002010B50C46F0
:1041E00080B200F0B7F800210548FDF7FFF920463E
:1041F000FCF77EFBBDE8104000210148FDF712BA34
:10420000540200202DE9F04105460C46B1F90000AA
:1042100000F06CFD0646B5F9000000F067FD0746AA
:104220001149304600F050FE104900F081FC104961
:1042300000F074FD06460F49384600F045FE0E4971
:1042400000F076FC4FF07E5100F034FE0B4900F098
:1042500065FD0746304600F02DFD2880384600F009
:1042600029FD2080BDE8F081000048430000614541
:104270000000704300007A4300A057450000A043AF
:1042800030B5324B0021585CAA2806D15818427824
:10429000AA2A02D18078202803D0491CFF29F2DD08
:1042A00030BD00242A4822468D181D44ED788554DF
:1042B0002C44521CA4B2202AF6DB1944E24391F8A4
:1042C0002310D2B291421FD1417880F82410427F4E
:1042D00080F82520C27F80F826201D2911D036299C
:1042E0000FD037290DD038290BD0502909D05129AA
:1042F00007D0522905D06B2903D0C82901D001214C
:1043000000E0002180F82810417B827B090441EA0B
:104310000221C27B1143C162017C427C090441EA53
:104320000221827C11430163C17C027D090441EAC0
:104330000221427D11434163817DC27D090441EA2E
:104340000221027E1143816330BD00001401002070
:104350007804002010B5FDF77BFEBDE81040002179
:104360000148FDF743B90000540200202DE9FF4742
:10437000DFF8188100264FF4A073D8F80050F0221F
:10438000314630460096FDF71BFB4FF6FF794C4651
:1043900000233FA264211820CDF80090FDF79EFB7A
:1043A000032042A1CDE90010CDE902464FF48C77FD
:1043B0001423642239460A20FEF74CFD06203CA156
:1043C000CDE90010CDE9024614236422394682204B
:1043D000FEF740FD1E23D222A0210F200094FDF7FE
:1043E000EFFA0220FEF75EFD01280BD002280DD067
:1043F0000028F6D00024142614384FF01F0A00EBD2
:10440000D07712E004B00020BDE8F087C8F8005073
:10441000F8E700BF06EB440080B214230222A52176
:10442000CDF800A0FDF7CCFA641CB4EB670FF1DB0C
:10443000002464204FF0DA0AA0EB67060BE061422B
:104440000AEB410080B214230222A521CDF800908E
:10445000FDF7B6FA641CA642F1DC4C46002316A216
:1044600086215420CDF80090FDF738FB7A1015A175
:104470001548C8F80020FBF7D3FE0023124A862116
:104480008C200094FDF72AFBABE7000048000020D9
:10449000536C69646520746F2073657420566F6C6B
:1044A000756D652068657265000000004F4B210046
:1044B00043616E63656C0000566F6C756D653A20E4
:1044C00020200000256400007400002010B591EA4F
:1044D000030F48BF83F0004300F1E681841A71EBBB
:1044E000030C05D2121943EB0C03001B61EB0C010A
:1044F000DFF824E14FEA1154A4EB135C1EEA430FEA
:1045000018BF9EEA445F73D023EA0E03DCF1200E4D
:1045100021EA045143F4801332D322FA0CFE10EB4B
:104520000E0023FA0CFE41EB0E01CCF1200E03FA33
:104530000EFE10EB0E0051F10001B1F5801FCCF121
:10454000200E32D201EB045112FA0EF2BDE81040F7
:1045500058BF7047401C38BF5FEA420218BF70471F
:10456000002814BF20F0010041F100014FEA41038F
:1045700013F5001F38BF7047A1F1C04100F086B9A4
:10458000012A43EB0302ACF1200CDCF11F0E32BF19
:104590004FF0000E23FA0CF310EB030041EB045133
:1045A000B4EB115FD0D0A1EB045101F580114908A3
:1045B0005FEA300001EB04510ED350F1000038BF28
:1045C00012FA0EFE08D1BDE81040C9E7401C38BF02
:1045D0005FEA4202CAD1C3E7BDE810404FEA410397
:1045E00013F5001F38BF7047A1F1C04100F04EB96C
:1045F0009EEA445F08D011EA5E0FBDE8104004BF98
:1046000001F0004100207047BDE8104070B500F097
:10461000EFF800BF64FBBE3E0000E0FF4FEA11531D
:10462000A3F58063D3F11E03A8BFD3F1200C08DBF0
:104630004FF0004242EAC12252EA505232FA03F0ED
:10464000704709420BD4102BC4BF0020704703F5FC
:10465000787CBCF1FF3F05D04FF0FF3070474FF042
:104660000000704770B500F0C3F800BF4992248085
:1046700000207047F0E7B0FA80F310FA03F10AD097
:10468000C3F11D0303F580634FEA41504FEA035223
:1046900002EBD12170474FF000007047DFF848C1AE
:1046A00070B51CEA111E1EBF1CEA13159EEA0C0F02
:1046B00095EA0C0F00F06F8081EA030423EA4C13A3
:1046C0004EEAD47E21EA4C1141F4801143F4801368
:1046D000AE44A1FB024CA0FB0365AEF17F7E361910
:1046E00055EB0C05A1FB034C4CF10003A0FB021C95
:1046F00016EB0C06654153F10003094218BF46F062
:10470000010613F4007F0BD14FEA03314FEA053065
:10471000340341EA155140EA16506FF003020AE0F3
:104720004FEAC3214FEAC520F40241EA555140EA5D
:1047300056506FF0020202EB2E4201EB025585EA61
:10474000CE710AD05FEA440C18BF24F0004450F147
:10475000000041F1000120EAD47040F2FE7C624585
:1047600000D270BDA84214BF4FF080444FF04044C7
:10477000002E08BF0024BEF1806FA8BFA1F1C04188
:10478000BDE8704080F282804FF0000001F1C0412E
:1047900001F0004170479EEA0C0F0CEA131518BF98
:1047A00095EA0C0F06D04FF0000081EA030E0EF0E0
:1047B000004170BD00F01CF88900013E00F007B810
:1047C00000F009B84FEA430C5FEA5C5C08D081EA6C
:1047D000030100F05BB84FEA410C5FEA5C5CF6D184
:1047E0004FF00000014970470000FF070000F87F0C
:1047F0000EF1020E2EF0030E5EF8046B364205D465
:10480000012A43EB030515F5001F12D8012841EBDF
:10481000010C1CF5001F0CD80ED14FEAD17C15F508
:10482000001F0CEB4C0C0CF1020C08BF4CEBD37CC2
:1048300004E04FF0080C01E04FEAD37C0CEB4C0590
:1048400026FA05F606F00706B6F1040C06D20EEBC2
:10485000860CBDE870404CF0010C6047DFE80CF0BE
:10486000090B02024FF000414FF00000A1F50021BA
:1048700070BD19461046012851EB010418BFD4F54C
:10488000001484BF002001F0004170BD0808A0F5AD
:1048900000114FEA3101704710B591EA030F48BF8C
:1048A00083F000433FF51AAE841A71EB030C07D274
:1048B00012198CF0004C43EB0C03001B61EB0C0154
:1048C000DFF8A4E14FEA1154A4EB135C1EEA430F96
:1048D00018BF9EEA445F00F0B08023EA6E035242A4
:1048E00021EA0451C3EB6E0338BF5B1EDCF1200EDE
:1048F00025D322FA0CFE10EB0E0043FA0CFE41EB1E
:104900000E01CCF1200E03FA0EFE10EB0E0051F159
:104910000001CCF1200E29D412FA0EF201EB045161
:10492000BDE8104058BF7047401C1CBFB2F1004F9B
:10493000704700280CBF491C20F00100704712EBA3
:10494000020E43EB030218BF4FF0010E4EEA420283
:10495000ACF1200CDCF11E0E54D943FA0CFE10EB26
:104960000E0051F1FF31CCF11E0ED5D50EF1010E26
:1049700012FA0EFE404141EB010101EB445C5FEA9B
:104980005C5C10D910EBDE7001EB045138BFBEF156
:10499000004FBDE8104018BF704700280CBF491CED
:1049A00020F00100704730D24FEAD42C11F50011ED
:1049B00024F400641BD0B1FA81F20B3AA41AA41EAD
:1049C000D2F12003914030FA03F31943904001EBF8
:1049D000CC71002C01EB0451BDE81040A8BF70471A
:1049E00001F1C0414FF0000001F000417047B0FA02
:1049F00080F310FA03F100D110BDE41A173C48050A
:104A0000C90AE4E701EB045110BD491001EB045160
:104A1000BDE810404FEA300002E04FF0000170475F
:104A20004A0008BF0042F8D0B2F5001F28BF704707
:104A300001F000414FF0000070479EEA445F07D04C
:104A400011EA5E0FBDE8104004BF0021002070474E
:104A5000BDE8104070B5FFF7CBFE00BF40DFF63E6B
:104A600083F00041104670470000E0FF90EA010F1C
:104A700048BF81F0004100F12E82421A3CBF801AEB
:104A800089184FEAD0524FF07F4C1CEA410FA2EB3D
:104A9000D15318BF9CEA026F00F03B804FF0004CEE
:104AA0004CEA00204CEA012121FA03FC10EB0C0C2B
:104AB0001ED202F1FF325FEA1C2040EBC25038BF29
:104AC00070471CF07F0F4FEA400C18BFBCF17F4FBE
:104AD00038BF7047C3F12003994008BF20F00100A0
:104AE000BCF17F4F38BF7047A0F1C04000F0DDB986
:104AF0004FEA3C00000A40EBC25028BF1CF0FF0FF9
:104B00004FEA400CE6D018BFBCF17F4F38BF70476A
:104B1000EAE79CEA026F05D010EA5C0F08BF00F0DC
:104B20000040704710B500F07AF900BF64FBBE3E4C
:104B30004FF47F0C1CEAD0121EBF1CEAD11392EA7C
:104B40000C0F93EA0C0F00F0858090EA010F48BF2C
:104B500042F4807240F4000C41F400002CF07F41DC
:104B600020F07F4000B58142A2EB03020FF2081C47
:104B7000ACEB504EC0F100009EF800E04FEA4E0E44
:104B800000FB0EFC38BF49004FEA2C1C02F5FA026C
:104B90000CFB0EF34FEACE1E4FEA112C4FEAC12157
:104BA0000EEB635E42EB22420EFB0CFC4FEA1C5301
:104BB00000FB03114FEA112C4FEA01310EFB0CFCF4
:104BC0004FEADC4C00FB0C11C14228BF09184CEB2A
:104BD00003335DF804EB10EB410143EBC250B2F537
:104BE0007C0F38BF704729D512F0F00F1CBF00F1C1
:104BF000C04000F000407047008182838485868732
:104C000088898B8C8D8E8F919293959697999A9C8B
:104C10009D9FA0A2A3A5A7A8AAACAEB0B2B3B5B7FA
:104C2000B9BCBEC0C2C5C7C9CCCED1D4D7D9DCDFD0
:104C3000E2E6E9ECF0F3F7FAFE0000004FEA400C80
:104C40000CF1807CBCF17E4F28BF7047B0F1C040B2
:104C500000F02BB990EA010F0CEAD11348BF42F4DF
:104C60008072624538BF634507D213F47F0F16D0B8
:104C700080EA010000F00040704710B500F0CFF866
:104C8000097EFC3E00F005B880EA010000F000401B
:104C9000704780EA010000F0004000F006B912F40D
:104CA0007F0F04BF0248704780EA010000F0FDB8A2
:104CB0000000C07F41000B0ED3F19E0208D950F4D2
:104CC00000034FEA032323FA02F048BF4042704733
:104CD00010B500F0A4F800BF49922480002070476E
:104CE0006FF0004282EA20007047000010F000419F
:104CF00048BF4042B0FA80F310FA03F2C3F19D03BB
:104D00000BD051EAC35101EB1220530638BF704754
:104D100000F1010008BF20F0010070474FF47F0C44
:104D20001CEAD0121EBF1CEAD11392EA0C0F93EAC0
:104D30000C0F00F0478090EA010F48BF42F48072E8
:104D40004FF0004C4CEA00204CEA012102EB030238
:104D5000A0FB0113A2F50002002918BF43F00103D4
:104D60005B0028BF4FEA330342EB22425FEA132C79
:104D70004CEBC2502EBFBCEB436FB2F57C0F7047BB
:104D80004FEA036CBCF1004F08BF20F00100B2F500
:104D90007C0F38BF70470BD582F0FF0212F5803FC1
:104DA000C8BF704700F1C040D8BF00F00040704756
:104DB00000F5000C5FEA4C0C48BF7047B0F1C040F2
:104DC00000F073B890EA010F0CEAD11348BF42F427
:104DD0008072624538BF634504D280EA010000F06A
:104DE0000040704710B500F01AF800BF8900013E7E
:104DF00000F007B800F009B85FEA410C5FEA1C6CEC
:104E000008D080EA010000F050B85FEA400C5FEA89
:104E10001C6CF6D14FF00040A0F5800070470EF1F9
:104E2000020E2EF0030E5EF8044B244204D44FEA27
:104E30004102B2F17F4F11D84FEA4003B3F17F4FE7
:104E40000CD80ED14FEAD07CB2F17F4F0CEB4C0C5A
:104E50000CF1020C08BF4CEBD17C04E04FF0080CC5
:104E600001E04FEAD17C0CEB4C0324FA03F404F08C
:104E70000704B4F1040C06D20EEB840CBDE810401C
:104E80004CF0010C6047DFE80CF0070802024FF01D
:104E90000040A0F5800010BD0846420018BFD2F1C6
:104EA000807288BF00F0004010BDFF2141EAD05061
:104EB000C005704780F0004090EA010F7FF5DDAD3E
:104EC00081F0004100F007B890EA010F48BF81F07F
:104ED00000413FF5D2AD421A04D882F00042A0EB67
:104EE000020011444FEAD0524FF07F4C1CEA410FB0
:104EF000A2EBD15318BF9CEA026F4AD04FF0004C8E
:104F00004CEA00204CEA012121FA03FCB0EB0C0C26
:104F10000FD412F0FE0F36D05FEA4C001DD5001200
:104F200040EBC25038BF70471CF03F0F18BF7047AE
:104F30000BE0A2F101025FEA1C2040EBC25038BF37
:104F400070471CF07F0F18BF7047C3F120039940D2
:104F500014BF401E20F00100704780084FEA122362
:104F600008BF7047B0FA80FCA2EB0C02CCF1280C11
:104F700060FA0CF093EA122F04BF00EBC2507047A6
:104F80004FEAC3707047130A5FEADC1008BF70472E
:104F9000F6E79CEA026F04D010EA5C0F08BF00201D
:104FA000704710B5FFF73BFF40DFF63E81F0004051
:104FB000704700000000000000000000000000003A
:104FC0000000000000183C3C3C18180018180000B5
:104FD000000000000066666600000000000000009F
:104FE00000000000006C6CFE6C6C6CFE6C6C0000D1
:104FF00000000018183C66060C183060663C181853
:10500000000000000E1B5B6E30180C76DAD87000C2
:1050100000000000001C36361C06F66666DC000048
:105020000000000000181818000000000000000038
:1050300000000000003018180C0C0C0C0C18183074
:1050400000000000000C1818303030303018180CF8
:10505000000000000000006C38FE386C000000000A
:105060000000000000000018187E18180000000062
:105070000000000000000000000000003838301878
:105080000000000000000000007E000000000000A2
:1050900000000000000000000000000038380000A0
:1050A00000000000006060303018180C0C0606008C
:1050B000000000000078CCECECCCDCDCCC7800000C
:1050C000000000000030383E30303030303000001A
:1050D00000000000003C66666030180C067E000090
:1050E00000000000003C666660386066663C0000B8
:1050F00000000000000C0C6C6C6C66FE6060000030
:1051000000000000007E0606063E6060301E0000C3
:10511000000000000038180C3E666666663C000021
:1051200000000000007E60303018180C0C0C0000ED
:1051300000000000003C66666E3C7666663C00003F
:1051400000000000003C666666667C30181C0000AB
:10515000000000000000003838000000383800006F
:105160000000000000000038380000003838301817
:1051700000000000006030180C060C1830600000C1
:1051800000000000000000007E007E000000000023
:105190000000000000060C18306030180C060000FB
:1051A00000000000003C6666301818001818000067
:1051B00000000000007EC3C3F3DBDBF303FE00004E
:1051C0000000000000183C6666667E6666660000A9
:1051D00000000000003E6666663E6666663E0000B1
:1051E00000000000003C666606060666663C00009D
:1051F00000000000001E366666666666361E000009
:1052000000000000007E0606063E0606067E000040
:1052100000000000007E0606063E060606060000A8
:1052200000000000003C666606067666667C0000AC
:105230000000000000666666667E666666660000C0
:1052400000000000003C181818181818183C00003E
:10525000000000000060606060606066663C000006
:105260000000000000666636361E363666660000B0
:10527000000000000006060606060606067E000080
:105280000000000000C6C6EED6D6D6C6C6C60000D0
:105290000000000000C6C6CEDEF6E6C6C6C60000A8
:1052A00000000000003C666666666666663C0000BC
:1052B00000000000003E6666663E06060606000028
:1052C00000000000003C666666666666663C30600C
:1052D00000000000003E6666663E366666660000B8
:1052E00000000000003C66060C183060663C0000C0
:1052F00000000000007E1818181818181818000070
:10530000000000000066666666666666663C000031
:105310000000000000666666666666663C1800006F
:105320000000000000C6C6C6D6D6D66C6C6C000065
:10533000000000000066662C1818346666660000DF
:105340000000000000666666663C18181818000029
:1053500000000000007E606030180C06067E000031
:1053600000000000003C0C0C0C0C0C0C0C0C0C0C89
:105370003C0000000006060C0C181830306060007D
:1053800000000000003C3030303030303030303001
:105390003C0000183C660000000000000000000017
:1053A00000000000000000000000000000000000FD
:1053B000FF00001C1830000000000000000000008A
:1053C000000000000000003C60607C66667C00001D
:1053D000000000000006063E66666666663E000047
:1053E000000000000000003C66060606663C000067
:1053F000000000000060607C66666666667C0000F7
:10540000000000000000003C66667E06063C0000CE
:105410000000000000780C0C0C7E0C0C0C0C000042
:10542000000000000000007C66666666667C6060C6
:105430003E0000000006063E666666666666000080
:10544000000000001818001E18181818187E000018
:10545000000000003030003C303030303030303030
:105460001E0000000006066666361E3666660000F0
:1054700000000000001E181818181818187E0000E8
:10548000000000000000007ED6D6D6D6D6C60000AA
:10549000000000000000003E66666666666600006A
:1054A000000000000000003C66666666663C000086
:1054B000000000000000003E66666666663E060666
:1054C000060000000000007C66666666667C606020
:1054D0006000000000000066760E0606060600006A
:1054E000000000000000007C06063C60603E0000FA
:1054F00000000000000C0C7E0C0C0C0C0C78000062
:10550000000000000000006666666666667C0000BB
:105510000000000000000066666666663C18000039
:1055200000000000000000C6D6D6D6D66C6C000085
:105530000000000000000066663C183C6666000043
:10554000000000000000006666666666663C301873
:105550000F0000000000007E6030180C067E000086
:105560000000000000301818180C060C181818302D
:105570000000000000181818181818181818181823
:1055800018000000000C1818183060301818180C9B
:1055900000000000008EDB71000000000000000031
:1055A0000000FFFFFFFFFFFFFFFFFFFFFFFFFFFF09
:1055B000FFFFFFFFFFFFFFFFFFFFFFFFFFFFFFFFFB
:1055C000FFFFFFFFFFFFFFFFFFFFFFFFFFFFFFFFEB
:1055D000FFFFFFFFFFFF7966D679FFFFFFFFFFFFA9
:1055E000FFFFFFFFFFFFFFFFFFFFFFFFFFFFFFFFCB
:1055F000FFFFFFFFFFFFFFFFFFFFFFFFFFFFFFFFBB
:10560000FFFFFFFFFFFFFFFFFFFFFFFFFFFFFFFFAA
:10561000FFFFFFFFFFFFFFFFFFFFFFFFFFFFFFFF9A
:10562000FFFFFFFFFFFF70C37945FFFFFFFFFFFF95
:10563000FFFFFFFFFFFFFFFFFFFFFFFFFFFFFFFF7A
:10564000FFFFFFFFFFFFFFFFFFFFFFFFFFFFFFFF6A
:10565000FFFFFFFFFFFFFFFFFFFFFFFFFFFFFFFF5A
:10566000FFFFFFFFFFFFFFFFFFFFFFFFFFFFFFFF4A
:10567000FFFFFFFF794570C370C3FFFFFFFFFFFF10
:10568000FFFFFFFFFFFFFFFFFFFFFFFFFFFFFFFF2A
:10569000FFFFFFFFFFFFFFFFFFFFFFFFFFFFFFFF1A
:1056A000FFFFFFFFFFFFFFFFFFFFFFFFFFFFFFFF0A
:1056B000FFFFFFFFFFFFFFFFFFFFFFFFFFFFFFFFFA
:1056C000FFFF712470C370C370C3FFFFFFFFFFFFB4
:1056D000FFFFFFFFFFFFFFFFFFFFFFFFFFFFFFFFDA
:1056E000FFFFFFFFFFFFFFFFFFFFFFFFFFFFFFFFCA
:1056F000FFFFFFFFFFFFFFFFFFFFFFFFFFFFFFFFBA
:10570000FFFFFFFFFFFFFFFFFFFFFFFFFFFFFFFFA9
:10571000712570C370C385D170C3FFFFFFFFFFFF0A
:10572000FFFFFFFFFFFFFFFFFFFFFFFFFFFFFFFF89
:10573000FFFFFFFFFFFFFFFFFFFFFFFFFFFFFFFF79
:10574000FFFFFFFFFFFFFFFFFFFFFFFF7104FFFFF2
:10575000FFFFFFFFFFFFFFFFFFFFFFFFFFFF7104E2
:1057600070C370C37DF2863270C3FFFFFFFFFFFF7F
:10577000FFFFFFFFFFFFFFFFFFFFFFFFFFFFFFFF39
:10578000FFFFFFFFFFFFFFFFFFFFFFFFFFFFFFFF29
:10579000FFFFFFFFFFFFFFFFFFFFFFFF70C371046D
:1057A000FFFFFFFFFFFFFFFFFFFFFFFF710470C35D
:1057B00070E365F08632690370C3FFFFFFFFFFFFF0
:1057C000FFFFFFFFFFFFFFFFFFFFFFFFFFFFFFFFE9
:1057D000FFFFFFFFFFFFFFFFFFFFFFFFFFFFFFFFD9
:1057E000FFFFFFFFFFFFFFFFFFFFFFFFFFFF70C394
:1057F00070E3FFFFFFFFFFFFFFFFFFFF70C370C3FA
:1058000066107E5235AC70C3D659FFFFFFFFFFFF15
:10581000FFFFFFFFFFFFFFFFFFFFFFFFFFFFFFFF98
:10582000FFFFFFFFFFFFFFFFFFFFFFFFFFFFFFFF88
:10583000FFFFFFFFFFFFFFFFFFFFFFFFFFFF70C343
:1058400070C370C370C370C370C370C370C370C3C0
:1058500066302DAB2DAB68C370C370C368E370C3F3
:1058600070C370C370C3FFFFFFFFFFFFFFFFFFFFA9
:10587000FFFFFFFFCE5868C370C368C3CE58FFFF59
:10588000FFFFFFFFFFFFFFFFFFFFFFFFFFFF70C3F3
:10589000358B68C370C370C370C370C370C32D8B66
:1058A0002DCB2DCB2DCB70C370C38612358B2DAB7A
:1058B000358B70C370C3FFFFFFFFFFFFFFFFFFFFCC
:1058C000FFFFFFFF68E370C3C16570C370C370C39F
:1058D000FFFFFFFFFFFFFFFFFFFFFFFFFFFF70C3A3
:1058E0002448661066306630358B35AB68E32DABE7
:1058F0002DCB2DCB7E3286127E127E322DCB2DAB60
:105900002DAB68C3CE58FFFFFFFFFFFFFFFFFFFF78
:10591000FFFF70C39145C165C165C165C16570C3B5
:1059200068C3FFFFFFFFFFFF68C370C370C370C38E
:1059300068E370C368E32DAB2DAB2DCB2DAB2448B2
:10594000244824682DAB2DAB244824482DAB68E3B4
:1059500068E370C3FFFFFFFFFFFFFFFFFFFFFFFFD5
:10596000FFFF70C391459945C165C165C16570C3AD
:1059700070C3FFFF68C370C370C3C166CACBCAAB34
:10598000CAABC16570C368E3242824482DAB68E323
:1059900068E324281C682DAB68E370C370C370C330
:1059A00070C3CE38FFFFFFFFFFFFFFFFFFFFFFFFCA
:1059B000FFFF70C370C3C165C165C16578C370C3A3
:1059C000FFFF70C378C3C165C165D2AACACBCAAA9A
:1059D000C165C165C165C16570E370C370C3C1664F
:1059E00078C370E370C370E370C3C165C165C166FD
:1059F00070C370C370E3FFFFFFFFFFFFFFFFFFFFF8
:105A0000FFFFFFFF68C370C3916570C370C3FFFFE2
:105A1000FFFF70C3C041C041C965C165C165C165B3
:105A2000C165C165C165C165CAABCAAACACACAABEC
:105A3000CACBC165C165C165CACBCAAAC165C1650A
:105A4000CACBC16578C368C3FFFFFFFFFFFFFFFF3D
:105A5000FFFFFFFFFFFF70C3C16570C3FFFFFFFFC4
:105A6000FFFF70C3C165CAAAC165C165C165C165D3
:105A7000C165C165C165C165C166C165C165C165F5
:105A8000C165C165C165C166CACBCAAAC165C16627
:105A9000CAABCAABC16578C370C3FFFFFFFFFFFF8E
:105AA000FFFFFFFFFFFF70C3996570C3FFFFFFFF9C
:105AB000FFFF70C3C165C165C966C165C965C165C0
:105AC0005882C165C165C165C966C165C965C165E1
:105AD0005882C165C965C965C166C165C965C165C9
