:020000040800F2
:10000000B8140020E1010008DF200008A71900084B
:10001000DD20000857060008CD2800080000000079
:10002000000000000000000000000000A9210008FE
:10003000910600080000000001210008AB21000823
:10004000FB010008FB010008FB010008FB010008A0
:10005000FB010008FB010008FB010008FB01000890
:10006000FB010008FB010008A3060008FB010008D3
:10007000FB010008FB010008FB010008FB01000870
:10008000FB010008FB010008FB010008FB01000860
:10009000FB010008FB010008FB010008FB01000850
:1000A000FB010008FB010008FB010008FB01000840
:1000B000FB010008FB010008FB010008FB01000830
:1000C000FB010008FB010008FB010008FB01000820
:1000D000FB01000805280008FB010008FB010008DF
:1000E000FB010008FB010008FB010008FB01000800
:1000F000FB010008FB010008FB010008FB010008F0
:10010000FB010008FB010008FB010008FB010008DF
:1001100061250008FB010008FB010008FB01000845
:10012000FB010008FB010008FB010008FB010008BF
:1001300000F002F800F045F80AA090E8000C8244B4
:100140008344AAF10107DA4501D100F03AF8AFF291
:10015000090EBAE80F0013F0010F18BFFB1A43F0A5
:10016000010318470058000020580000103A24BF2F
:1001700078C878C1FAD8520724BF30C830C144BF0C
:1001800004680C607047000000230024002500264E
:10019000103A28BF78C1FBD8520728BF30C148BFEA
:1001A0000B607047642900F07780752900F0748037
:1001B000782900F0AD80002070471FB51FBD10B535
:1001C00010BD00F00EFA1146FFF7F7FF02F078FEBF
:1001D00000F02CFA03B4FFF7F2FF03BC00F034FA8E
:1001E0000948804709480047FEE7FEE7FEE7FEE7CB
:1001F000FEE7FEE7FEE7FEE7FEE7FEE70448054907
:10020000054A064B7047000009220008310100082A
:10021000B8040020B8140020B80C0020B80C00204E
:100220000FB41CB5074B06AA7B446946009005989D
:1002300000F0BFF90020694600F0CEF91CBC5DF863
:1002400014FB0000AD03000070B50446856900682A
:10025000C10601D5302600E02026C00707D070BDBA
:10026000D4E9012130469047206A401C20626D1E6F
:10027000F6D570BD70B5044685690078C00707D112
:1002800070BDD4E9012120209047206A401C2062E3
:100290006D1EF6D570BD00002DE9F0410646002424
:1002A00010687529314616A510D0AFF300800028DC
:1002B00002DA404213A507E031688A0701D512A58A
:1002C00002E0490704D511A5012401E0AFF3008045
:1002D00000210A2206F1240709E0B0FBF2FCB0FB82
:1002E000F2F302FB1C00303078541846491C0028F9
:1002F000F3D123462A463046BDE8F04100F0FAB873
:10030000000000002D0000002B0000002000000075
:1003100070B504460D4621461068AFF30080218871
:10032000090502D50F4A7A4402E00E4A7A440E3299
:10033000002104F1240305E000F00F060009965D9A
:100340005E54491C0028F7D120780023000704D50B
:10035000702D02D009B1022311322046BDE8704051
:1003600000F0C8B8005600002DE9F05F8946044649
:100370004FF0000ADFF824B1FB44C0F820A020466B
:10038000E168884700287DD0252806D0D4E90121DE
:100390009047206A401C2062F1E700255F46204616
:1003A000E16888472028064607DB312E05D2B819B8
:1003B00010F8200C08B10543F1E7A80701D525F096
:1003C0000405C4F81CA00027C4F818A02A2E09D0E0
:1003D000304602F0DBFB38B304EB8708303EC8F848
:1003E000186019E059F8041B204604EB870291615C
:1003F000E1688847012F064618D1E069002820DA15
:1004000025F020051DE0D8F8180000EB800006EB71
:1004100040003038C8F818002046E1688847064692
:1004200002F0B4FB0028EED1012F0AD02E2E08D105
:100430002046E16888477F1C0646022F45F02005CC
:10044000C4DBA069002803DA404245F00105A06141
:10045000E80701D025F01005A6B1A6F14100192842
:1004600002D8203645F400654A46314620462560CC
:100470004D46FFF797FE60B1012807D0ED1D25F02E
:10048000070000E007E000F1080978E705F104093A
:1004900075E730467AE7206ABDE8F09FD655000040
:1004A0004FF0000200B5134694469646203922BF0D
:1004B000A0E80C50A0E80C50B1F12001BFF4F7AF58
:1004C000090728BFA0E80C5048BF0CC05DF804EB3A
:1004D000890028BF40F8042B08BF704748BF20F8A8
:1004E000022B11F0804F18BF00F8012B70477047A6
:1004F000704770472DE9F0470D46994692460446ED
:1005000000F124080168880604D5E06921F0100193
:10051000216000E00120A84201DD471B00E0002728
:10052000A1697A1902EB0900081AA0612078C006B7
:1005300002D42046FFF788FE002608E0D4E9012116
:100540001AF806009047206A401C761C20624E452F
:10055000F4DB2078C0060AD52046FFF775FE06E0DA
:10056000D4E9012130209047206A401C2062381EC7
:10057000A7F10107F4DC07E0D4E9012118F8050030
:100580009047206A401C2062281EA5F10105F3DC7B
:100590002046FFF76FFE2078000602D50220BDE856
:1005A000F0870120FBE7000001694A1C026108781E
:1005B000704700B58FB0CDE90131002105910549A3
:1005C0007944CDE9031011466846FFF7CDFE0FB020
:1005D00000BD0000E5FFFFFF0A6802F8010B0A609A
:1005E0007047754600F02CF8AE4605006946534644
:1005F00020F00700854618B020B5FFF7FFFDBDE8E5
:1006000020404FF000064FF000074FF000084FF079
:10061000000B21F00701AC46ACE8C009ACE8C0090A
:10062000ACE8C009ACE8C0098D46704710B5044677
:10063000AFF300802046BDE81040FFF7CBBD0000BF
:10064000004870475804002001491820ABBEFEE75F
:10065000260002007047FEE708B50B49684602F025
:1006600042F900280ED0BDF80200E938312809D23D
:10067000BDF800006038312804D20448016881F0D8
:100680000201016008BD0000080000200C0C0140C0
:10069000704701B5009801E0401E00900028FBD192
:1006A00008BD102000F06CB930B5B3F5804F05D00F
:1006B0006FF0704140F82210002030BD8C690B684B
:1006C0008D6823434C688989240144EA0524234327
:1006D00043EA014150F82230014C23401943E9E735
:1006E0000000F0CF30B50A6850F8223023F0010343
:1006F00040F822308C68204B4A68082C1ED02243D8
:10070000D1E903452C4322434C6922438C6922439F
:10071000CC6922430C6A22434C6A22438C6A2243EE
:10072000CC6A22430C6B0968224350F821401C40DC
:1007300052EA040240F82120002030BDD1E90345EF
:1007400042F008022C4322434C6922438C69224325
:10075000CC6922430C6A22434C6A22438C6A2243AE
:10076000CC6A22430C6B0968224350F821401C409C
:10077000224342F04002DDE78100F7FF30B5D1E9C6
:10078000003443EA04138C688D89240244EA05444A
:1007900023430C8A094D00EB820005EB04542343EC
:1007A0000C7D6D0105EB0464896923430B434168AB
:1007B00001F040410B434360002030BD0000F0FFDA
:1007C0002DE9F05F90F821100024022903D00421C4
:1007D0008163012485E001680A6822F00E020A6044
:1007E00001680A6822F001020A603F4E3E4FB215CE
:1007F000DFF8F4C0DFF8F090DFF8ECA0DFF8E8B045
:10080000DFF8E4E00168783F13011502ACF1640CF5
:10081000A9F15009AAF13C0AABF1280BAEF1140E74
:100820004FF48018B14227D9B9420ED0614512D099
:1008300049451DD0514518D0594518D0714501D1B1
:10084000424615E0294EB14201D1012210E0274E67
:100850001436B14201D110220AE0244E2836B142AA
:1008600006D0224A3C32914201D11A4600E02A4683
:100870001E49091F0A602BE0B94213D0614517D009
:10088000494522D051451DD059451DD0714501D152
:1008900042461AE0B14202D14FF0807215E0134E89
:1008A000B14201D1012210E0104E1436B14201D103
:1008B00010220AE00D4E2836B14206D00B4A3C32D7
:1008C000914201D11A4600E02A46074980394A6020
:1008D000012180F82110002180F82010416B01B126
:1008E00088472046BDE8F09F80000240080402408F
:1008F00070B5044600F052F90546601C02D0044869
:100900000078044400F04AF9401BA042FAD370BDBD
:100910005800002030B585B0002000900190029072
:1009200003901248016800291ED10121016010487E
:10093000416941F4807141614069022400F4807092
:1009400004904FF68070CDE90004032569460395B5
:10095000084800F021F84CF6B370CDE90004694670
:100960000395054800F018F805B030BD40000020A0
:1009700000100240001801400014014070470000C0
:10098000044910B50A68024202D00860FFF7F6FF7A
:1009900010BD0000140401402DE9F84FDFF8B8A1A4
:1009A00000220AF1040B144601274FF00F090BF146
:1009B000040E00BF0B6807FA04F52B40AB4274D15C
:1009C000DFF898C14E68A6EB0C0866452BD00DDC0D
:1009D000032E34D005DC36B3012E19D0022E2FD1D0
:1009E0001BE0112E16D0122E2AD119E0B8F5881F5F
:1009F00019D006DCB8F5803F15D0B8F5801F1FD19F
:100A000011E0B8F5001F0ED0B8F5041F18D10AE0A8
:100A1000CA6815E0CA68121D12E0CA6808320FE001
:100A2000CA680C320CE08A682AB1012A4FF0080229
:100A300003D0456104E0042202E0056100E00022E9
:100A4000FF2B01D8064601E000F104064FEA8405B9
:100A500001D9A5F12005D6F800C009FA05F82CEA5D
:100A6000080C02FA05F54CEA050CC6F800C04D6802
:100A7000ED006AD53A4DAE6946F00106AE61AD694A
:100A800024F0030605F001050095364D06EB050C34
:100A9000DCF80850A6074FEA167809FA08F6B543BD
:100AA000314EB04202D100261AE04EE02F4EB04245
:100AB00001D1012614E02E4EB04201D102260FE0F2
:100AC0002C4EB04201D103260AE02B4EB04201D198
:100AD000042605E0294EB04201D1052600E0062695
:100AE00006FA08F62E43CCF808604D68DAF8006084
:100AF000ED03554601D51E4300E09E432E604D6830
:100B0000AD0305D5DBF800601E43CBF8006004E0C0
:100B1000DBF800509D43CBF800504D68DEF80060D4
:100B2000ED02754601D51E4300E09E432E604D68E0
:100B3000AD0205D5084D0C352E681E432E6004E02D
:100B4000054E0C3635689D433560641C102CFFF44F
:100B500031AFBDE8F88F0000000401400000111023
:100B6000001002400000014000080140000C01405C
:100B7000001001400014014000180140001C014019
:100B80008068084000D001207047C2684A40C260B7
:100B900070470AB1016170470904FBE701488068AA
:100BA0007047000058000020024881680278114414
:100BB0008160704758000020074810B5016841F077
:100BC00010010160032000F073F8002000F006F827
:100BD00000F024F8002010BD0020024070B50D4D3B
:100BE00004464FF47A712878B1FBF0F00A4909689D
:100BF000B1FBF0F000F04DFB48B9102C07D20022F9
:100C00002146501E00F034F800206C6070BD0120B9
:100C100070BD000058000020640000200C4808B59A
:100C2000816941F001018161816901F00101009157
:100C3000C16941F08051C161C06900F080500090ED
:100C40000448416821F0E06141F00071416008BD55
:100C5000001002400000014000F01F0201219140FD
:100C60004009800000F1E020C0F80011704700004A
:100C7000F0B40E4B1B680C46C3F30223C3F1070507
:100C8000042D00D90425191D072901D2002300E0F5
:100C9000DB1E012606FA05F1491E214099409E40BF
:100CA000761E16403143F0BC01F01ABA0CED00E09C
:100CB000064900F0070208684FF6FF03184040EAB3
:100CC0000220034A10430860704700000CED00E06A
:100CD0000000FA052DE9F047DFF8548105460E467D
:100CE000D8F8000000F00700B0420CD2D8F800108D
:100CF00021F007013143C8F80010D8F8000000F0D7
:100D00000700B0426FD128684A4C810712D54007CE
:100D100003D5606840F4E06060602878000703D580
:100D2000606840F4605060606068A96820F0F0007E
:100D3000084360602878C00744D06868012816D04E
:100D40002168022816D0890700294CDA616821F051
:100D5000030101436160FFF721FF6968074641F223
:100D6000883001290ED00229814618D026E021685A
:100D70008903E9E78901E7E7FFF710FFC11B494550
:100D800001D918E081466068C0F381000128F3D1E1
:100D900018E000BFFFF702FFC11B49450BD8606890
:100DA000C0F381000228F5D10CE000BFFFF7F6FE8A
:100DB000C11B494502D90320BDE8F087606810F0E7
:100DC0000C0FF3D1D8F80010404601F00701B142F2
:100DD0000BD9016821F0070131430160006800F080
:100DE0000700B04201D00120E6E72878400705D58A
:100DF0006068E96820F4E0600843606028780007D4
:100E000006D56068296920F4605040EAC10060603E
:100E100000F036F86168084AC1F30311515CC8401C
:100E2000064908600020FFF7D9FE0020C4E7000053
:100E30000020024000100240125900086400002007
:100E40000448054900684968044AC1F30221515C1D
:100E5000C84070476400002000100240225900087A
:100E60000448054900684968044AC1F3C221515C3D
:100E7000C84070476400002000100240225900085A
:100E800012A185B00FC98DE80F0014A0144A0068A4
:100E900004905168134801F00C03042B10D0082B68
:100EA0000ED1C1F38343C9031DF803000AD551686D
:100EB00004AAC1F34041515C0A4A5043B0FBF1F02F
:100EC00005B0704708494843FAE7000002030405EB
:100ED000060708090A0B0C0D0E0F10100102000086
:100EE0000010024000127A0000093D0030B585B0C4
:100EF0000020029002200190032003900B4C4FF43D
:100F000080700090A0690D4640F00400A061A069C7
:100F1000694600F0040004900548FFF73DFD606855
:100F200020F0E0602843606005B030BD0010024052
:100F3000000801402DE9F84F04460078B94DC0077C
:100F400048D06868C0F38100012807D06868C0F302
:100F50008100022809D16868C00306D5286880038B
:100F600038D5606800286FD034E06068B0F5803F05
:100F70000BD010B1B0F5A02F11D0286820F480302C
:100F80002860286820F4802002E0286840F480303F
:100F90002860606888B1FFF701FE064609E028680E
:100FA00040F480202860F0E7FFF7F8FD801B6428FC
:100FB00075D828688003F7D50CE0FFF7EFFD0646EB
:100FC00005E000BFFFF7EAFD801B6428F0D8286821
:100FD0008003F7D42078944E80074FF001094FF03A
:100FE00000083BD5686810F00C0F07D06868C0F3A4
:100FF0008100022809D16868C00306D428688007E8
:1010000014D5206901281FD110E02069B0B1C6F8BD
:101010000090FFF7C3FD074605E000BFFFF7BEFDE8
:10102000C01B0228C4D828688007F7D528686169E2
:1010300020F0F80040EAC10028600FE0C6F8008008
:10104000FFF7ACFD074606E0E9E000BFFFF7A6FDAD
:10105000C01B022823D828688007F7D4207800070F
:101060002CD57248A169D9B1C0F80090FFF796FD60
:10107000074604E0FFF792FDC01B02280FD8686AFC
:101080008007F7D56A484FF4FA510068B0FBF1F0D9
:10109000009000BF0098411E0091FAD20EE080E05F
:1010A000C0F80080FFF77AFD074604E0FFF776FD01
:1010B000C01B022875D8686A8007F7D420784007DB
:1010C00060D5E8690027C00008D4E86940F0805086
:1010D000E861E869012700F08050009055480168F8
:1010E000C90513D40168834641F480710160FFF79C
:1010F00055FD824606E000BFFFF750FDA0EB0A0059
:1011000064284ED8DBF80000C005F5D5E06801285A
:101110000AD008B1052813D0286A20F001002862FF
:10112000286A20F0040002E0286A40F001002862EA
:10113000E06841F2883B98B1FFF730FD82460BE052
:10114000286A40F004002862EEE700BFFFF726FDA2
:10115000A0EB0A0159455AD8286A8007F6D50CE059
:10116000FFF71CFD824605E0FFF718FDA0EB0A0122
:1011700059454CD8286A8007F6D41FB1E86920F099
:101180008050E861E06988B36968C1F38101022990
:1011900045D00228C6F8608004D0FFF7FFFC044663
:1011A00038E034E0FFF7FAFC074604E0FFF7F6FC0E
:1011B000C01B02282BD828688001F7D4206AB0F51C
:1011C000803F05D16868A16820F40030084368605A
:1011D000D4E908010843696821F474110843686080
:1011E000C6F86090FFF7DAFC044606E015E000BFA1
:1011F000FFF7D4FC001B022809D828688001F7D526
:101200000BE000BFFFF7CAFC001B022802D9032035
:10121000BDE8F88F28688001F4D40020F8E70120A9
:10122000F6E7000000100240000042428004424203
:10123000640000200070004070B515460E460400A2
:1012400003D094F83D0010B107E0012070BD0020EC
:1012500084F83C00204600F01AF804F108012068E8
:10126000FFF740FA3146A2682068FFF787FAD4E911
:1012700001022946236BFFF717FAA168206850F88E
:10128000212042F0010240F82120002070BDFFF72C
:1012900041BB10B5401EB0F1807F01D3012010BDCD
:1012A0004FF0E02460610F21601700F019FF00206B
:1012B000A06107202061002010BD30B590F83C20CF
:1012C000012A20D0012280F83C20022380F83D3002
:1012D00003685C6824F070045C6003685C680D68F7
:1012E0002C435C6003689C6824F080049C60036865
:1012F0009C6849680C439C6080F83D20002180F880
:101300003C10084630BD022030BD10B5040003D0AB
:1013100094F83D0010B107E0012010BD002084F8D2
:101320003C00204600F00CF8022084F83D00211D0E
:10133000206800F08DFF012084F83D00002010BDE2
:1013400008B501680B48B1F1804F0BD00A4A9142B1
:1013500007D1C16941F00401C161C06900F0040016
:10136000009008BDC16941F00101C161C06900F090
:101370000100F5E7001002400008004070B5044687
:1013800090F83C00012817D0012584F83C50022039
:1013900084F83D002068826822F0770222F47F42C0
:1013A00082600868502837D00DDC202859D005DC31
:1013B00088B3102841D151E0022070BD302853D0AD
:1013C00040283AD13FE060282ED070280BD0B0F5ED
:1013D000805F03D0B0F5005F2FD110E020688168F6
:1013E00021F0070115E0CB68D1E90121206800F068
:1013F00080FF2168886840F0770088601DE0CB6836
:10140000D1E90121206800F074FF2068816841F46F
:101410008041816011E01EE0CA684968206801F0DF
:101420007BF85021206806E0CA684968206801F00E
:1014300084F86021206800F066FF84F83D500020A9
:1014400084F83C0070BDCA684968206801F064F8FF
:1014500040212068EFE700212068ECE71021206898
:10146000E9E720212068E6E730212068E3E7000073
:1014700000B585B0002100910191029103910268AD
:1014800014480221B2F1804F14D0134B9A420FD16D
:10149000826942F0080282618069039100F00800CD
:1014A00004904020CDE9000169460C48FFF774FA2A
:1014B00005B000BD826942F0040282618069039137
:1014C00000F0040004900120CDE9000169460448C1
:1014D000ECE700000010024000080040000C014052
:1014E0000008014070B5044690F83C000D46012804
:1014F0000DD0012684F83C60022084F83D0042B102
:10150000042A18D0082A2AD00C2A4DD139E002200A
:1015100070BD206800F000FF2068816941F008017B
:1015200081612068816921F00401816120688169FD
:101530002A69114311E0206800F01EFF20688169CC
:1015400041F4006181612068816921F480618161D9
:10155000206881692A6941EA0221816124E02068CA
:1015600000F040FF2068C16941F00801C1612068B6
:10157000C16921F00401C1612068C1692A69114370
:1015800011E0206800F062FF2068C16941F4006149
:10159000C1612068C16921F48061C1612068C169AD
:1015A0002A6941EA0221C16184F83D60002084F883
:1015B0003C0070BD10B5040003D094F83D0010B19C
:1015C00007E0012010BD002084F83C00204600F018
:1015D0000CF8022084F83D00211D206800F038FE40
:1015E000012084F83D00002010BD704710B504466E
:1015F0000068012200F072FE08492068884202D08B
:101600000749884203D1416C41F40041416420689C
:10161000016841F001010160002010BD002C014073
:101620000034014010B504460068002200F056FE68
:10163000114841F2111221689310814202D00F48E3
:10164000814209D1086A104206D1086A184203D1C2
:10165000486C20F4004048642068016A114206D1B9
:10166000016A194203D1016821F0010101600120E2
:1016700084F83D00002010BD002C014000340140E2
:1016800070B5044690F83C00012818D0012584F874
:101690003C50022084F83D00204600F0FFFE206808
:1016A000C16821F04001C1602068C16821F4804117
:1016B000C16084F83D50002084F83C0070BD0220D9
:1016C00070BD704770B5026804461068D1685369F0
:1016D00010F00F0F50D003F0010501F49076354360
:1016E0005DD0C20705D0CA0503D5E26B42F0010206
:1016F000E263420705D5DA0703D0E26B42F002024B
:10170000E263820705D5DA0703D0E26B42F00402F8
:10171000E263020705D5DA0703D0E26B42F0080264
:10172000E263E26B002A33D0800604D5880602D536
:10173000204600F031FF20684069E16BC0F3801063
:10174000090700D428B3204600F018FF206841693B
:1017500049061AD5416921F040014161606BA0B191
:101760001B494163606BFFF72BF8002810D0606BBA
:10177000416BBDE870400847830610D58B060ED537
:101780002046BDE8704000F007BF2046FFF799FFF4
:1017900070BD2046FFF795FF0020E06370BD030693
:1017A00006D50B0604D52046BDE8704000F0F8BF12
:1017B0004006F3D54806F1D5D168204621F0400116
:1017C000D160202184F8391000F0ECF870BD0000E1
:1017D0006D25000870B5040004D094F83900002588
:1017E00010B106E0012070BD84F83850204600F0AA
:1017F00023F8242084F839002068C16821F40051BE
:10180000C160204600F014FF2068016921F4904176
:1018100001612068416921F02A0141612068C168A5
:1018200041F40051C160E563202084F8390084F858
:101830003A00002070BD000070B586B0002400940E
:1018400001940294039403682E482D4E051502213D
:101850000322B34226D1C36943F40023C361C369A1
:1018600003F400230493836943F0100383618069C8
:10187000CDE9005100F01000CDE90320224D69466A
:101880002846FFF789F8E814CDE9000469462846A0
:101890000294FFF781F8002211463420FFF7E8F99F
:1018A000342028E0194EB34227D1836943F48043A2
:1018B0008361836903F480430493836943F00403E1
:1018C00083618069039200F0040004907015CDE9F3
:1018D00000010F4E69463046FFF75EF8CDE900542F
:1018E000694630460294FFF757F80022114625203A
:1018F000FFF7BEF92520FFF7AFF906B070BD000075
:10190000004C00400010024000100140003801402F
:101910000008014090F83A30202B22D1F9B1F2B101
:1019200090F83830012B1CD081628285C28500215D
:10193000C163222280F83A2080F838100168CA6812
:1019400042F48072CA6001684A6942F001024A6149
:101950000068C16841F02001C1600020704701208B
:1019600070470220704700000B4910B50878FF2827
:1019700004D30020087002F0ABF804E0074B4A786B
:101980001A54401C087004490122BDE81040491C4B
:101990000348FFF7BFBF00003C000020B800002054
:1019A000380200207047FEE7044B4FF4805108B125
:1019B000002200E001221846FFF7EBB800140140B6
:1019C00070B51D461446049E00F016F904FB05F0A0
:1019D0003146BDE8704000F0A9B8000070B5203A6B
:1019E000D4B21023082200F007F92C20C106088089
:1019F0000C490D4B01EB041500204FF6FF742A5CD7
:101A00000021D60702D01F261E8000E01C80491C42
:101A10005208C9B20829F4D3401CC0B21028EED332
:101A200070BD0000A246000800000260F0B5203A38
:101A30001C46D6B210230822059D00F0DDF82C20AC
:101A4000C10608800A490B4B002001EB0616002155
:101A5000325CD70701D01D8000E01C80491C520871
:101A6000C9B20829F5D3401CC0B21028EFD3F0BD8D
:101A7000A24600080000026010B51446F02806D205
:101A8000B1F5A07F03D201231A4600F0B5F8214634
:101A9000BDE81040012000F049B80000F0B516463E
:101AA0000D4604464FF4A07714E000BF04F108008F
:101AB000F02802D900241035ADB205F11000B8426B
:101AC00001D90024254629462046FFF787FF083420
:101AD000A4B2761C3278002AE8D1F0BD2DE9F84393
:101AE000994616460D4604464FF4A077DDF820804F
:101AF00017E000BF04F10800F02802D900241035D7
:101B0000ADB205F11000B84201D9002425464B467C
:101B100029462046CDF80080FFF788FF0834A4B29C
:101B2000761C3278002AE5D1BDE8F88310B5002292
:101B30002C23DC062380034B01E01980521C8242D7
:101B4000FBD310BD0000026020494FF0C0420128C5
:101B500006D0022808D003280ED0042809D120E09E
:101B600036201080C8201FE036201080682006E054
:101B700008802C2010807047362010802820088094
:101B80002A201080002008800880012008803F2043
:101B900008802B2010800020088008800880EF201B
:101BA000E6E736201080482008802A201080002098
:101BB000088008800880EF2008802B2010800020FB
:101BC00008800880012008803F20D1E700000260E3
:101BD00008B50120FFF7E8FE00F0EAF800F02CF865
:101BE0004FF6FF70002100904FF4A073F0220846DA
:101BF000FFF7E6FE08BD000070B54FF0C0452A248F
:101C00002C800C4C060A2680C6B226801044401E4A
:101C1000020A2280C0B220802B202880080A20805F
:101C2000C8B22080C818401E010A2180C0B220809E
:101C300070BD00000000026000B54FF0C041CF2031
:101C400008805948002202808122028030220280CE
:101C5000ED220A8064220280032202801222028086
:101C600081220280E8220A808522028010220280DE
:101C700078220280CB220A80392202802C22028024
:101C8000002202803422028002220280F7220A808F
:101C900020220280EA220A80002202800280B122F1
:101CA0000A80002202801B220280B6220A800A22B9
:101CB0000280A2220280C0220A8035220280C12234
:101CC0000A8011220280C5220A80452202800280F9
:101CD000C7220A80A2220280F2220A800022028009
:101CE00026220A8001220280E0220A800F2202803E
:101CF00026220280242202800B2202800E220280F1
:101D00000922028054220280A822028046220280F8
:101D10000C22028017220280092202800F220280F8
:101D20000722028000220280E1220A800022028033
:101D3000192202801B2202800422028010220280CB
:101D4000072202802A220280472202803922028052
:101D50000322028006220280028030220280382282
:101D600002800F22028036220A80C82202802A22A4
:101D70000A800022028002800280EF2202802B2251
:101D80000A80002202800280012202803F2202801B
:101D90003A220A8055220280112008800348FEF76B
:101DA00078FC2920088000BD00000260FCBF020012
:101DB00070B50A4C002202212046FEF7EAFE084DCB
:101DC0002846FEF766FC012202212046FEF7E1FECE
:101DD0002846BDE87040FEF75CBC000000180140DA
:101DE000FCBF02002DE9FF4F9A46164683460025A8
:101DF0000D9F1FE005EB85004FEA001901980024B4
:101E000000EB050813E0002009EB44010B18401C0F
:101E1000FB5C022803EB022292B2F7DB0BEB04001F
:101E20001FFA88F180B2FFF727FE0022641CB4423B
:101E3000E9DB6D1C5545DDDBBDE8FF8F00B587B0E4
:101E40001C216846FEF72CFB15484FF0204110225C
:101E500001601449416000218160C160C0E9041241
:101E60008161C16113020162C0E90913C1620163AA
:101E7000416381630F20FF230090CDE90103CDE989
:101E800003021120CDE90501002269460448FFF74D
:101E9000D3F90548C16941F48061C16107B000BD53
:101EA000B8020020040100A0000001402DE9F04725
:101EB00086B00024414800940194029403948169FF
:101EC00041F040018161816901F040010491816923
:101ED00041F010018161816901F010010491816973
:101EE00041F004018161816901F00401049181697B
:101EF00041F008018161816901F008010491816963
:101F000041F0200181618069DFF8B48000F0200099
:101F10000490002207214046FEF73BFEDFF8A49024
:101F2000012223214846FEF734FEDFF89CA04FF43F
:101F30004057002239465046FEF72BFE0720012568
:101F40000326CDE90005CDE9024669464046FEF785
:101F500023FD08208DE8310069464046FEF71CFD50
:101F6000102000901948CDE9010569464046FEF76A
:101F700013FD2320CDE90005CDE902466946484618
:101F8000FEF70AFD00970396CDE9015469465046D5
:101F9000FEF702FD2802009002200190039069469E
:101FA0000B48FEF7F9FC002211460A20FEF760FEFE
:101FB0000A20FEF751FE06B0BDE8F087001002408F
:101FC00000180140000C01400014014000002110E5
:101FD0000008014010B58EB00024079408940994BD
:101FE0000A940B941C2168460C94FEF759FA174882
:101FF0004FF08041C0E9001440F2AF41C0E9024116
:1020000004618461FFF781F94FF48050079007A9BC
:102010000E48FFF7B3F90D48FFF7CCFA20200B90DC
:1020200080200C900BA90948FFF747F96020009029
:102030001020CDE901040022694604480494FFF70A
:1020400051FA0248FFF714FA0EB010BDB801002093
:1020500030B58FB00546142107A8FEF721FA0024F9
:102060000C941C2168460D94FEF71AFA1A49194877
:10207000C1E900044EF66020B0FBF5F08C60C1E9C8
:10208000030408468C61FFF740F91348FFF792FA02
:10209000052007901020089007A90F48FFF7F0FAD5
:1020A0000C940CA90C480D94FFF707F960200090E0
:1020B00047F23050B0FBF5F0CDE90104002269464B
:1020C00005480494FFF70EFA0348FFF7D1F90FB063
:1020D00030BD000000080040F8010020FEE7704716
:1020E0000907090E002806DA00F00F0000F1E020D1
:1020F00080F8141D704700F1E02080F8001470474C
:102100007047000010B500211848FFF78BFA6420D3
:10211000FEF7EEFB7D21C42001F088FC7D21DC2050
:1021200001F084FC7D2140F2051001F07FFC7D214F
:10213000DC2001F07BFC40F245110C1D204601F033
:1021400075FC3220FEF7D4FB40F27711204601F0F7
:102150006DFC40F2EE2140F2251001F067FCBDE875
:10216000104000210148FFF75DBA0000F80100208F
:102170000B480A490160483141604831816048316B
:10218000C160084801684A6942F001024A6100687A
:10219000C16841F02001C160704700003803002091
:1021A00048000020780200207047FEF7FDBC30B5E3
:1021B0008FB028216846FEF773F914210AA8FEF7AC
:1021C0006FF901210804CDE90010002402940225D2
:1021D0000491CDE907504FF4E01009906846FEF7EE
:1021E000A9FE0F20CDE90A056802CDE90C400221C5
:1021F0000AA80E94FEF76EFD00224FF0E061104633
:10220000FEF774FE0FB030BD0D48016841F00101CA
:10221000016041680B4A1140416001680A4A11405F
:102220000160016821F480210160416821F4FE0110
:1022300041604FF41F0181600449C003086070478A
:10224000001002400000FFF8FFFFF6FE08ED00E07E
:10225000F0B502681C4B1D4D1D4E1E4F1E4C4FF01D
:10226000804C984209D0A04207D0604505D0A842D2
:1022700003D0B04201D0B84204D122F0700E4A68B7
:1022800042EA0E02984209D0A04207D0604505D02C
:10229000A84203D0B04201D0B84203D122F4407525
:1022A000CA682A4322F080054A692A4302608A6884
:1022B000C2620A688262984201D0A04201D10969D3
:1022C000016301214161F0BD002C01400004004088
:1022D00000080040000C00400034014010B501230C
:1022E000046A8B409C430462036A8A40134303627E
:1022F00010BD10B5846842EA032224F47F440A43E7
:102300002243826010BD826822F070020A4342F0CC
:102310000701816070470000F0B5026A22F00102F7
:102320000262036A42688469124E24F073050C68E5
:102330002C4323F002058B682B430D4DA84201D09E
:10234000B04205D123F00807CB683B4323F00403D8
:10235000A84201D0B04205D14D6922F44072154324
:102360008A692A4342608461496841630362F0BD1F
:10237000002C014000340140F0B5026A22F0100246
:102380000262026A436884690D6824F4E64444EA00
:1023900005248D6822F0200242EA05120F4D104EEE
:1023A000A84201D0B04206D1CF6822F0800242EAB2
:1023B000071222F04002A84201D0B04207D14D6975
:1023C00023F4406343EA85038D6943EA8503436050
:1023D0008461496881630262F0BD0000002C014005
:1023E00000340140F0B5026A22F480720262026A8F
:1023F0004368C46922F4007224F073050C68124E1D
:102400002C438D6842EA05220E4DA84201D0B0420D
:1024100006D1CF6822F4006242EA072222F48062E9
:10242000A84201D0B04207D14D6923F4405343EA9A
:1024300005138D6943EA05134360C4614968C163AC
:102440000262F0BD002C01400034014030B5026A48
:1024500022F480520262046A4268C3690D6823F460
:10246000E64343EA05238D6824F4005444EA053426
:10247000084DA84202D0084DA84204D14D6922F46B
:10248000804242EA85124260C36149680164046285
:1024900030BD0000002C01400034014030B403681E
:1024A0009A6822F070044A68224322F007040A68FE
:1024B00022439A604A6812F00F0F1FD11211082AA6
:1024C0001CD2DFE802F01B1B1B1B0B1D23040B6936
:1024D000D1E90221006830BCFFF70BBF0268136A24
:1024E000146A24F00104146202689469096924F0F2
:1024F000F00444EA011191610068036230BC704746
:102500000A698968006830BC00F006B80A69896801
:10251000006830BC00F011B810B5036A046A24F0FA
:1025200001040462846924F0F00444EA021423F0F4
:102530000A020A438461026210BD10B5036A23F0E7
:10254000100303628369046A23F4704343EA02328E
:1025500024F0A00343EA01118261016210BD000072
:102560000148FFF7AFB800003802002010B5406AFC
:102570000021C185C184FFF7A4F810BD0168CA68B5
:1025800022F49072CA6001684A6922F001024A612D
:10259000202180F83A10704710B590F83A1022299F
:1025A00001D0022010BD8168B1F5805F11D00169B2
:1025B000002901681FD0496801F07F03816A4A1C25
:1025C00082620B70C18D491E0904090CC18518D0A7
:1025D0002BE00269816A002A0268526805D0D2B2F3
:1025E0000A80816A491C8162ECE7C2F308020A8012
:1025F000816A891CF7E74A68816A4B1C83620A700A
:10260000E0E70168CA6822F02002CA600168CA686F
:1026100022F48072CA6001684A6922F001024A61AC
:10262000202180F83A10FFF79FF9002010BD00002C
:102630002DE9F041044600680169E26821F4405147
:10264000114301612169A068084361690843216859
:10265000CA6841F20C639A430243CA602068416928
:10266000A26921F44071114341614C4920686425FD
:10267000322688423CD1FEF7F3FB00EBC00101EBB0
:10268000001061688900B0FBF1F7FEF7E9FB00EB91
:10269000C00101EB00106168B0468900B0FBF1F0A9
:1026A000B0FBF5F06FF01801484307EB800106EB33
:1026B0000110B0FBF5F000F0F006FEF7D1FB00EBE7
:1026C000C00101EB001061688900B0FBF1F0B0FBC4
:1026D000F5F006EB0016FEF7C3FB00EBC00101EBC3
:1026E000001061688900B0FBF1F7FEF7B9FB3BE031
:1026F000FEF7A6FB00EBC00101EB0010616889004A
:10270000B0FBF1F7FEF79CFB00EBC00101EB001002
:102710006168B0468900B0FBF1F0B0FBF5F06FF0F6
:102720001801484307EB800106EB0110B0FBF5F000
:1027300000F0F006FEF784FB00EBC00101EB001097
:1027400061688900B0FBF1F0B0FBF5F006EB001614
:10275000FEF776FB00EBC00101EB00106168890019
:10276000B0FBF1F7FEF76CFB00EBC00101EB0010D2
:1027700061688900B0FBF1F0B0FBF5F06FF0180173
:10278000484307EB800108EB0110B0FBF5F021682E
:1027900000F00F0030448860BDE8F081003801404F
:1027A00090F83910212901D0022070478168B1F5D5
:1027B000805F016A0BD04A1C02620268097851608E
:1027C000C18C491E0904090CC1840ED017E0098888
:1027D0000268C1F30801516001690029016A02D051
:1027E000491C0162ECE7891CFBE70168CA6822F01A
:1027F0008002CA600068C16841F04001C1600020E9
:1028000070470000014800F003B800007802002083
:1028100030B402681368D168154C9D060CD58D063E
:102820000AD511685168A042CAB214D11148816812
:1028300030BC104600F0F0BE1B060CD509060AD5C8
:10284000A04208D10C490B6C4C6CA34205D1D06856
:1028500020F08000D06030BC70474A6C4B6C8A5CC2
:102860005B1C03F03F034B64006801684260F2E7C1
:1028700078020020480000201004002030B50D46EA
:10288000044603E02946641C00F004F82078002880
:10289000F8D130BD10B5002813DB0A4A914210D19F
:1028A0000949C9680B6C5B1C03F03F034C6C9C42EC
:1028B000FCD00C6C08550B641068C16841F08001B5
:1028C000C16010BD7802002048000020FEE701B57D
:1028D000002004E00B21491EC9B2FCD2401C009923
:1028E0008842F7D308BD2DE9F84380460C460127FE
:1028F000684600F06FF8E0B3BDF8020001F033FA6B
:10290000D4E9022301F042FA05460E46BDF8000064
:1029100001F029FAD4E9002301F038FA2A463346B7
:1029200001F04CF9D4E9042301F048F901F0EEF983
:10293000A8F80000BDF8020001F015FAD4E9082358
:1029400001F024FA05460E46BDF8000001F00BFA2E
:10295000D4E9062301F01AFA2A46334601F02EF98B
:10296000D4E90A2301F02AF901F0D0F9A8F802000D
:1029700001E0FFE700273846BDE8F88370B500F0B6
:10298000D3F8134E00252A4604213046FEF701F9FC
:10299000012211463046FEF7FCF8002400220121F6
:1029A0003046FEF7F6F808213046FEF7E9F8C4F1A4
:1029B0000B018840284385B2012211463046FEF7BC
:1029C000E8F8641CE4B20C2CE8D3284670BD000083
:1029D00000180140F0B58DB0054600262821684654
:1029E000FDF75EFD464F6C460BA90AA800F08CF877
:1029F000BDF8280024F8160004EB4600BDF82C10A2
:102A00008182761CF6B210213846FEF7B9F808B973
:102A10000A2EE9D310213846FEF7B2F810B1394931
:102A2000002008700A2E02D000200DB0F0BDBDF9C4
:102A30000010BDF914008C46624603465FF00106A3
:102A400034F916708F4201DA394602E0974200DD10
:102A50003A46761CF6B20A2EF2D3012604EB46075C
:102A6000B7F914709F4201DA3B4602E0874200DD6D
:102A70003846761CF6B20A2EF0D3BDF90240BDF9F5
:102A80000460BDF9067064443E443444BDF90860F6
:102A90003444BDF90A603444BDF90C603444BDF9D6
:102AA0000E603444BDF910603444BDF91260344402
:102AB000611A891AC9082980BDF91410BDF91620B8
:102AC000BDF91A401144BDF9182022441144BDF942
:102AD0001C201144BDF91E201144BDF920201144D1
:102AE000BDF922201144BDF924201144BDF926204E
:102AF0001144C91A081AC0086880012095E700002F
:102B0000001801400000002070B506460D469020D8
:102B1000FFF734FF04460120FFF7D9FED020FFF76E
:102B20002DFF3480288070BD70B5174D06460022F9
:102B300004212846FEF72DF8002201212846FEF741
:102B400028F80024C4F1070026FA00F0C00701D0DD
:102B5000012200E0002204212846FEF71AF8052091
:102B6000FFF7B5FE012211462846FEF712F80520B0
:102B7000FFF7ADFE002201212846FEF70AF8641C8B
:102B8000E4B2082CDED370BD0018014030380A28AA
:102B900001D2012070470020704700002DE9F84F56
:102BA00083464FF6FF70904600908A466423322297
:102BB0005846FEF705FF1F240BF123064FF02A09A4
:102BC0000AF154070AF12A05B8F10A0F59D2DFE8D1
:102BD00008F00519213B5A66819CA7B20F233222C7
:102BE000514658460094FEF7EBFE0F2264235146EF
:102BF00058460094FEF7E4FE0AF155000F2381B217
:102C000000944AE00BF111000F2280B2009464237B
:102C1000514634E00F233222514658460094FEF7C5
:102C2000CFFE0F22B0B24B4651460094FEF7C8FECD
:102C30000F23A9B2322258460094FEF7C1FE0F229C
:102C4000A9B24B46009411E00F2332225146584658
:102C50000094FEF7B5FE0F22B0B2642351460094F3
:102C6000FEF7AEFE0F23A9B2322200944FEA0B000A
:102C7000FEF7A6FE0F23B9B2322258460094FEF7A3
:102C80009FFEBDE8F88F4B460F22514658460094F0
:102C9000FEF796FE0F23A9B20094322239E00F23EB
:102CA0003222514658460094FEF78AFE0F224B46C8
:102CB000514658460094FEF783FE0F23A9B23222F4
:102CC00058460094FEF77CFE0F22A9B2B0B24B46E4
:102CD0000094CDE70F233222514658460094FEF768
:102CE0006FFE0F226423514658460094FEF768FE9B
:102CF0000F23A9B2322258460094FEF761FE4B46DC
:102D00000F22A9B2B0B20094B2E70F23322251468B
:102D100000945846FEF754FE0F22B0B2009476E7B6
:102D20000F233222514658460094FEF749FE0F22E7
:102D30006423009409E00F23322251465846009440
:102D4000FEF73EFE4B460F22009451465846FEF7D2
:102D500037FE0F23A9B2322258460094FEF730FE08
:102D60000F22B0B264235146009481E72DE9F84F59
:102D700017460AAA1C4692E8200E0E4680469BB2D1
:102D8000BAB2CDF800A0FEF71BFEC9F1000007EBB8
:102D9000C000103C00EBD07204EBD47108EB620071
:102DA00006EB610189B280B253462A46CDF800B0E5
:102DB000FEF794FE0020BDE8F88F000010B5044631
:102DC00000F022FC002818D00F49881EFFF79CFE57
:102DD0000D49881E00F03EFE012C0ED10A48801ECF
:102DE000B0F90210A1F58C71142906D8B0F90000D1
:102DF000A0F10A01642901D8012010BD823864289D
:102E0000FBD8022010BD00003A0000202DE9F84355
:102E10004FF6FF7400214FF4A073F022084600948F
:102E2000FEF7CEFD2248282300901A467821642020
:102E3000FEF7D8FF1FA2B4215C20FEF72FFE1F2053
:102E400000901E23A022C8212820FEF7B9FD1423DC
:102E50009622CD212D200094FEF7B2FD00242D26D0
:102E60004FF4FC6705254FF0940800BF04EB840085
:102E700006EB400080B214230A22CD210097FEF712
:102E80009FFD94FBF5F005FB1040042808D194FB4E
:102E9000F5F108EBC10080B208A2B421FEF7FEFDF7
:102EA0003220FDF725FD641C0F2CDFDBBDE8F88325
:102EB000924C00084C6F6164696E67002E00000040
:102EC000E6B0FDF779FEFFF772F9FEF7EFFFFEF7C8
:102ED000B5FFFFF77FF84FF48070FFF7B9F8FF48B0
:102EE000FD494FF0000901604FF46141C0E901194B
:102EF0000C24C0F80C90C0E90494C0F818904E4619
:102F0000C0F81C90FEF766FCF448F54940300160BB
:102F10004FF4E131C0E90116C660C0E9046486617E
:102F2000C661FEF757FC00224FF40051ED48FDF753
:102F300030FEFEF74DFEE94800218038FEF756FBD3
:102F40000120FEF701FE0024ADF80060E34DC4351A
:102F500085F8276085F82860032085F82A0001227B
:102F6000E149DE48FEF7D6FCFFF702F9DF4EE04FFD
:102F700040F6C41AEA6AA846DEA151A8FDF750F946
:102F800001213846FDF701FED44951A84031FFF731
:102F900075FC6420FDF7ACFC3078012803D1FDF707
:102FA0005BFB86F800903220FDF7A2FC082C7DD256
:102FB000DFE804F0040B0E7C7C0DFCFB202138467E
:102FC000FDF7E3FD00F010FA05E2FFF71FFFF9E15E
:102FD0004FF6FF7600214FF4AA73F02208460096C0
:102FE000FEF7EEFCC44D0021C4A20846FEF756FDD4
:102FF000C4A220210020FEF751FDC6A240210020DE
:10300000FEF74CFDC3A240211420FEF747FDC2A2EB
:1030100040212820FEF742FDC0A240213C20FEF7BF
:103020003DFDC0A240216420FEF738FDBEA2402134
:103030007820FEF733FDBDA240218C20FEF72EFD47
:10304000BBA24021A020FEF729FDBBA278210020D1
:10305000FEF724FDA8480022BAA15038FDF7E0F899
:103060000024A5482A5DB8A15038FDF7D9F8A24A36
:103070000021503A6420FEF711FD2A5DAA2A70D182
:103080002F197878AA286CD1B878042866D19A4884
:10309000ADA15038FDF7C4F8974A6021503A00209E
:1030A000FEF7FCFC7A78A8A1934800E099E150383B
:1030B000FDF7B6F8904A6021503A1420FEF7EEFC76
:1030C0008D48BA78A0A15038FDF7AAF88A4A602145
:1030D000503A2820FEF7E2FC8748FA789AA1503847
:1030E000FDF79EF8844A6021503A3C20FEF7D6FC5A
:1030F00081483A7994A15038FDF792F87E4A6021D0
:10310000503A6420FEF7CAFC7B487A798EA1503889
:10311000FDF786F8784A6021503A7820FEF7BEFC29
:103120007548BA7988A15038FDF77AF8724A60215B
:10313000503A8C20FEF7B2FC6F48FA7982A15038E1
:10314000FDF76EF86C4A6021503AA020FEF7A6FC0D
:10315000285DAA2805D17878AA2802D1B878202835
:1031600004D0641CFF2C7FF77CAF3CE70027E019FC
:1031700075A12A5C60485038FDF752F85E4A07EBAB
:10318000C70006EA4000503AE821FEF787FC7F1CA2
:103190000D2FECDB0D274FF4847AE0196AA12A5C2D
:1031A00055485038FDF73CF801E016E10CE1A7F175
:1031B0000D00514A00EBC00006EA4000503A51466B
:1031C000FEF76CFC7F1C192FE7DB19274FF4947A6C
:1031D000E0195DA12A5C48485038FDF721F8A7F1B5
:1031E0001900454A00EBC00006EA4000503A51463B
:1031F000FEF754FC7F1C242FEADB002108464746DB
:1032000022182A44D2783A541144401C89B220280A
:10321000F6DBC8432919C0B291F8231081421FD1AF
:10322000787887F82400797F87F82510F97F87F868
:1032300026101D2811D036280FD037280DD0382859
:103240000BD0502809D0512807D0522805D06B2820
:1032500003D0C82801D0012000E0484687F82800A4
:103260003BA296210020FEF719FC97F8242036A1F6
:1032700001A8FCF7D5FF01AA96217820FEF70EFCE5
:1032800035A2AA210020FEF709FC97F825202EA1DF
:1032900015A8FCF7C5FF15AAAA217820FEF7FEFBAA
:1032A00030A2BE210020FEF7F9FB97F8262026A1C8
:1032B00029A8FCF7B5FF29AABE217820FEF7EEFB6E
:1032C0002AA278216420FEF7E9FB97F8282029A19B
:1032D0003DA8FCF7A5FF4FE0004C0040380200205D
:1032E00000380140001401403D0000200000002093
:1032F000000C014025750A00B8000020446174618B
:103300003A000000736D616C6C207061636B6574D2
:103310003A00000053590000504C0000434F444510
:1033200000000000564C00005631000056320000EC
:1033300043484B53554D0000426967207061636BF1
:1033400065743A00256400002530327800000000E2
:103350005369676E616C3A00417474656E74696F8D
:103360006E3A000052656C61783A000057656172F0
:103370003A000000257800003DAA78219620FEF74B
:103380008DFB787BB97B000440EA0120F97B084380
:10339000F862387C797C000440EA0120B97C08435B
:1033A0003863F87C397D000440EA0120797D0843C8
:1033B0007863B87DF97D000440EA0120397E084336
:1033C000B86310E6504604E0002000F0FDFA4FF428
:1033D000FA7000F02DF90446CCE5012000F0F4FA73
:1033E000F0E70024C6E500007FB54DF66E340021FD
:1033F0004FF4A073F02208460094FEF7E1FA4FF66E
:10340000FF75234637A2082110200095FEF766FBC2
:103410003B482823642100901A460846FEF7E2FC48
:10342000052038A1CDE90010CDE902541423B422BF
:10343000DC211E20FFF79AFC0B2034A1CDE90010FF
:10344000CDE902541423B422F5211E20FFF78EFC8F
:10345000072031A1CDE90010CDE902541423B42294
:103460004FF487711E20FFF781FC06202CA1CDE9C7
:103470000010CDE902541423B42240F227111E207B
:10348000FFF774FC284C00BF00F0BEF80028FBD00A
:103490002549891C881EFFF737FB2349891C881E94
:1034A00000F0D8FAB4F900001E38B428ECD8B4F90A
:1034B0000200A0F1DC01142902D8012004B070BD83
:1034C000A0F1F501142901D80220F7E7A0F58771D2
:1034D000142901D80320F1E7A0F227101428D3D82B
:1034E0000420EBE757656C636F6D6520746F2050A7
:1034F0006F6D6F646F726F2054696D65722100008B
:10350000924C000854696D657200000043616C695B
:1035100062726174696F6E005265706F72747300CD
:103520004F7074696F6E0000380000202DE9F04183
:1035300000213448FEF776F86420FDF7D9F940F20F
:1035400077156E1F2946304600F070FA7D20FDF792
:10355000CFF94FF4DC77FA21384600F067FA4FF4E0
:10356000FA74214640F22A2000F060FA21463846DB
:1035700000F05CFAFA21304600F058FA4FF49378E4
:10358000BC21404600F052FA3E20FDF7B1F9BC21C3
:10359000404600F04BFA3E20FDF7AAF9BC21404618
:1035A00000F044FA40F21A60FDF7A2F9FA21404611
:1035B00000F03CFAFA21304600F038FA2946384645
:1035C00000F034FA7D20FDF793F9FA21304600F03F
:1035D0002DFA2046FDF78CF9690040F2932000F0A7
:1035E00025FAFA2140F26E2000F020FA7D2140F207
:1035F0004B2000F01BFABDE8F04100210148FEF726
:1036000011B80000F801002008B56846FFF7E2F99C
:10361000002800D0012008BD0A6C4B6C521C02F03F
:103620003F02934202D00B6CC8540A6470470000FA
:103630002DE9FF5F07464FF6FF70002100904FF421
:10364000A073F0220846FEF7BBF9642097FBF0F167
:1036500097FBF0F500FB1174C5EB051004EB800639
:10366000A7F51060C43803D0B7F5FA7F04D008E09E
:103670000821A1A2242002E0A5A208211820FEF71B
:103680000DFAAAA231213420FEF708FAA9A23121AD
:10369000B220FEF703FA4FF00A0895FBF8F2462134
:1036A0000520FFF77BFA95FBF8F108FB1152462144
:1036B0003C20FFF773FA94FBF8F246218220FFF7D3
:1036C0006DFA94FBF8F108FB11424621B920FFF78F
:1036D00065FA1F2404231A466A2176200094FEF717
:1036E0006FF904231A46822176200094FEF768F9C8
:1036F0004FF0000947F6FF7A052490A2CDF80C9010
:103700008DE814044FF48C7B1423642259460A205C
:10371000FFF72CFB4FF6FF754FF4784089A1CDE9F8
:103720000014CDE902051423642259468220FFF7D4
:103730001DFBA0E04FF4167096FBF0F24621052029
:10374000FFF72CFA4FF03C0896FBF8F00A2490FBA8
:10375000F4F104FB110246214046FFF71FFA96FBE5
:10376000F8F108FB116090FBF4F246218220FFF78C
:1037700015FA96FBF8F108FB116090FBF4F104FBDD
:1037800011024621B920FFF709FA7048304001289C
:1037900002D0F0070AD017E01F2404231A466A213A
:1037A00076200094FEF70CF9009407E004231A46F3
:1037B0006A2176200095FEF703F9009504231A4646
:1037C00082217620FEF7FCF80024761E05E0012C0D
:1037D00003D15F495FA0FFF751F80120FFF7EEFA30
:1037E000012805D00120FFF7E9FA02283CD03CE08F
:1037F00008225AA3CDE90032CDE902A9142364229C
:1038000059460A20FFF7B2FA4FF2DE714FF0050871
:103810004CA2CDE90028CDE90215142364225946B3
:103820008220FFF7A3FA6420FDF762F80120FFF77A
:10383000C5FA0128FAD141A3CDF80C908DE808050E
:103840001423642259460A20FFF790FA4FF4784176
:103850003CA2CDE90028CDE9021514236422594683
:103860008220FFF783FA00E000266420FDF740F88D
:10387000641C0A2CABDB002EBFF65CAF40F6C41014
:1038800087421BD14DF66E3400214FF4A073F02215
:1038900008460094FEF794F8234633A290213C207A
:1038A0000095FEF71BF9234634A2A4210C200095B5
:1038B000FEF714F9062004B0BDE8F09FB7F5FA7FD3
:1038C000F9D144F6185400214FF4A073F0220846B1
:1038D0000094FEF775F823462FA29021342000951E
:1038E000FEF7FCF8234631A2A42114200095FEF730
:1038F000F5F80720DFE700004E6F7720697473202A
:1039000074696D6520746F20776F726B2100000001
:103910004C657427732074616B65206120676F6F3D
:103920006420627265616B21000000004D696E3A8F
:10393000000000005365633A000000005061757399
:103940006500000053746F702100000001000080CA
:103950007802002048656C6C6F000000436F6E7445
:10396000696E756500000000466F637573207469A9
:103970006D6520656E6473210000000054696D65FB
:1039800020746F2074616B6520612073686F72749E
:1039900020627265616B210053686F7274206272DD
:1039A00065616B20656E64732100000054696D656C
:1039B00020746F20676574206261636B20746F20D0
:1039C000776F726B210000002DE9F0410546002160
:1039D0001548FDF727FE6420FCF78AFF002440F21B
:1039E000E73640F28A276421304600F01FF896201F
:1039F000FCF77EFF6421304600F018F83846FCF7EB
:103A000077FF641C032CEEDB15B1012D03D004E01D
:103A1000FEF778FB01E0FFF789FDBDE8F0410021EA
:103A20000148FDF7FFBD0000F801002010B50C466D
:103A300080B200F0B7F800210548FDF7D7FD204619
:103A4000FCF756FFBDE8104000210148FDF7EABD34
:103A5000F80100202DE9F04105460C46B1F90000BF
:103A600000F0BCFC0646B5F9000000F0B7FC0746C4
:103A70001149304600F0A0FD104900F0D1FB10497B
:103A800000F0C4FC06460F49384600F095FD0E498B
:103A900000F0C6FB4FF07E5100F084FD0B4900F0B2
:103AA000B5FC0746304600F07DFC2880384600F023
:103AB00079FC2080BDE8F0810000484300006145AA
:103AC0000000704300007A4300A057450000A04367
:103AD00030B5324B0021585CAA2806D158184278DC
:103AE000AA2A02D18078202803D0491CFF29F2DDC0
:103AF00030BD00242A4822468D181D44ED78855497
:103B00002C44521CA4B2202AF6DB1944E24391F85B
:103B10002310D2B291421FD1417880F82410427F05
:103B200080F82520C27F80F826201D2911D0362953
:103B30000FD037290DD038290BD0502909D0512961
:103B400007D0522905D06B2903D0C82901D0012103
:103B500000E0002180F82810417B827B090441EAC3
:103B60000221C27B1143C162017C427C090441EA0B
:103B70000221827C11430163C17C027D090441EA78
:103B80000221427D11434163817DC27D090441EAE6
:103B90000221027E1143816330BD0000B800002085
:103BA000FC02002010B5FEF753FABDE810400021DA
:103BB0000148FDF71BBD0000F801002010B591EA97
:103BC000030F48BF83F0004300F1E681841A71EBD4
:103BD000030C05D2121943EB0C03001B61EB0C0123
:103BE000DFF824E14FEA1154A4EB135C1EEA430F03
:103BF00018BF9EEA445F73D023EA0E03DCF1200E67
:103C000021EA045143F4801332D322FA0CFE10EB64
:103C10000E0023FA0CFE41EB0E01CCF1200E03FA4C
:103C20000EFE10EB0E0051F10001B1F5801FCCF13A
:103C3000200E32D201EB045112FA0EF2BDE8104010
:103C400058BF7047401C38BF5FEA420218BF704738
:103C5000002814BF20F0010041F100014FEA4103A8
:103C600013F5001F38BF7047A1F1C04100F086B9BD
:103C7000012A43EB0302ACF1200CDCF11F0E32BF32
:103C80004FF0000E23FA0CF310EB030041EB04514C
:103C9000B4EB115FD0D0A1EB045101F580114908BC
:103CA0005FEA300001EB04510ED350F1000038BF41
:103CB00012FA0EFE08D1BDE81040C9E7401C38BF1B
:103CC0005FEA4202CAD1C3E7BDE810404FEA4103B0
:103CD00013F5001F38BF7047A1F1C04100F04EB985
:103CE0009EEA445F08D011EA5E0FBDE8104004BFB1
:103CF00001F0004100207047BDE8104070B500F0B1
:103D0000EFF800BF64FBBE3E0000E0FF4FEA115336
:103D1000A3F58063D3F11E03A8BFD3F1200C08DB09
:103D20004FF0004242EAC12252EA505232FA03F006
:103D3000704709420BD4102BC4BF0020704703F515
:103D4000787CBCF1FF3F05D04FF0FF3070474FF05B
:103D50000000704770B500F0C3F800BF499224809E
:103D600000207047F0E7B0FA80F310FA03F10AD0B0
:103D7000C3F11D0303F580634FEA41504FEA03523C
:103D800002EBD12170474FF000007047DFF848C1C7
:103D900070B51CEA111E1EBF1CEA13159EEA0C0F1B
:103DA00095EA0C0F00F06F8081EA030423EA4C13BC
:103DB0004EEAD47E21EA4C1141F4801143F4801381
:103DC000AE44A1FB024CA0FB0365AEF17F7E361929
:103DD00055EB0C05A1FB034C4CF10003A0FB021CAE
:103DE00016EB0C06654153F10003094218BF46F07B
:103DF000010613F4007F0BD14FEA03314FEA05307F
:103E0000340341EA155140EA16506FF003020AE00C
:103E10004FEAC3214FEAC520F40241EA555140EA76
:103E200056506FF0020202EB2E4201EB025585EA7A
:103E3000CE710AD05FEA440C18BF24F0004450F160
:103E4000000041F1000120EAD47040F2FE7C62459E
:103E500000D270BDA84214BF4FF080444FF04044E0
:103E6000002E08BF0024BEF1806FA8BFA1F1C041A1
:103E7000BDE8704080F282804FF0000001F1C04147
:103E800001F0004170479EEA0C0F0CEA131518BFB1
:103E900095EA0C0F06D04FF0000081EA030E0EF0F9
:103EA000004170BD00F01CF88900013E00F007B829
:103EB00000F009B84FEA430C5FEA5C5C08D081EA85
:103EC000030100F05BB84FEA410C5FEA5C5CF6D19D
:103ED0004FF00000014970470000FF070000F87F25
:103EE0000EF1020E2EF0030E5EF8046B364205D47E
:103EF000012A43EB030515F5001F12D8012841EBF9
:103F0000010C1CF5001F0CD80ED14FEAD17C15F521
:103F1000001F0CEB4C0C0CF1020C08BF4CEBD37CDB
:103F200004E04FF0080C01E04FEAD37C0CEB4C05A9
:103F300026FA05F606F00706B6F1040C06D20EEBDB
:103F4000860CBDE870404CF0010C6047DFE80CF0D7
:103F5000090B02024FF000414FF00000A1F50021D3
:103F600070BD19461046012851EB010418BFD4F565
:103F7000001484BF002001F0004170BD0808A0F5C6
:103F800000114FEA3101704710B591EA030F48BFA5
:103F900083F000433FF51AAE841A71EB030C07D28D
:103FA00012198CF0004C43EB0C03001B61EB0C016D
:103FB000DFF8A4E14FEA1154A4EB135C1EEA430FAF
:103FC00018BF9EEA445F00F0B08023EA6E035242BD
:103FD00021EA0451C3EB6E0338BF5B1EDCF1200EF7
:103FE00025D322FA0CFE10EB0E0043FA0CFE41EB37
:103FF0000E01CCF1200E03FA0EFE10EB0E0051F173
:104000000001CCF1200E29D412FA0EF201EB04517A
:10401000BDE8104058BF7047401C1CBFB2F1004FB4
:10402000704700280CBF491C20F00100704712EBBC
:10403000020E43EB030218BF4FF0010E4EEA42029C
:10404000ACF1200CDCF11E0E54D943FA0CFE10EB3F
:104050000E0051F1FF31CCF11E0ED5D50EF1010E3F
:1040600012FA0EFE404141EB010101EB445C5FEAB4
:104070005C5C10D910EBDE7001EB045138BFBEF16F
:10408000004FBDE8104018BF704700280CBF491C06
:1040900020F00100704730D24FEAD42C11F5001106
:1040A00024F400641BD0B1FA81F20B3AA41AA41EC6
:1040B000D2F12003914030FA03F31943904001EB11
:1040C000CC71002C01EB0451BDE81040A8BF704733
:1040D00001F1C0414FF0000001F000417047B0FA1B
:1040E00080F310FA03F100D110BDE41A173C480523
:1040F000C90AE4E701EB045110BD491001EB04517A
:10410000BDE810404FEA300002E04FF00001704778
:104110004A0008BF0042F8D0B2F5001F28BF704720
:1041200001F000414FF0000070479EEA445F07D065
:1041300011EA5E0FBDE8104004BF00210020704767
:10414000BDE8104070B5FFF7CBFE00BF40DFF63E84
:1041500083F00041104670470000E0FF90EA010F35
:1041600048BF81F0004100F12E82421A3CBF801A04
:1041700089184FEAD0524FF07F4C1CEA410FA2EB56
:10418000D15318BF9CEA026F00F03B804FF0004C07
:104190004CEA00204CEA012121FA03FC10EB0C0C44
:1041A0001ED202F1FF325FEA1C2040EBC25038BF42
:1041B00070471CF07F0F4FEA400C18BFBCF17F4FD7
:1041C00038BF7047C3F12003994008BF20F00100B9
:1041D000BCF17F4F38BF7047A0F1C04000F0DDB99F
:1041E0004FEA3C00000A40EBC25028BF1CF0FF0F12
:1041F0004FEA400CE6D018BFBCF17F4F38BF704784
:10420000EAE79CEA026F05D010EA5C0F08BF00F0F5
:104210000040704710B500F07AF900BF64FBBE3E65
:104220004FF47F0C1CEAD0121EBF1CEAD11392EA95
:104230000C0F93EA0C0F00F0858090EA010F48BF45
:1042400042F4807240F4000C41F400002CF07F41F5
:1042500020F07F4000B58142A2EB03020FF2081C60
:10426000ACEB504EC0F100009EF800E04FEA4E0E5D
:1042700000FB0EFC38BF49004FEA2C1C02F5FA0285
:104280000CFB0EF34FEACE1E4FEA112C4FEAC12170
:104290000EEB635E42EB22420EFB0CFC4FEA1C531A
:1042A00000FB03114FEA112C4FEA01310EFB0CFC0D
:1042B0004FEADC4C00FB0C11C14228BF09184CEB43
:1042C00003335DF804EB10EB410143EBC250B2F550
:1042D0007C0F38BF704729D512F0F00F1CBF00F1DA
:1042E000C04000F00040704700818283848586874B
:1042F00088898B8C8D8E8F919293959697999A9CA5
:104300009D9FA0A2A3A5A7A8AAACAEB0B2B3B5B713
:10431000B9BCBEC0C2C5C7C9CCCED1D4D7D9DCDFE9
:10432000E2E6E9ECF0F3F7FAFE0000004FEA400C99
:104330000CF1807CBCF17E4F28BF7047B0F1C040CB
:1043400000F02BB990EA010F0CEAD11348BF42F4F8
:104350008072624538BF634507D213F47F0F16D0D1
:1043600080EA010000F00040704710B500F0CFF87F
:10437000097EFC3E00F005B880EA010000F0004034
:10438000704780EA010000F0004000F006B912F426
:104390007F0F04BF0248704780EA010000F0FDB8BB
:1043A0000000C07F41000B0ED3F19E0208D950F4EB
:1043B00000034FEA032323FA02F048BF404270474C
:1043C00010B500F0A4F800BF499224800020704787
:1043D0006FF0004282EA20007047000010F00041B8
:1043E00048BF4042B0FA80F310FA03F2C3F19D03D4
:1043F0000BD051EAC35101EB1220530638BF70476E
:1044000000F1010008BF20F0010070474FF47F0C5D
:104410001CEAD0121EBF1CEAD11392EA0C0F93EAD9
:104420000C0F00F0478090EA010F48BF42F4807201
:104430004FF0004C4CEA00204CEA012102EB030251
:10444000A0FB0113A2F50002002918BF43F00103ED
:104450005B0028BF4FEA330342EB22425FEA132C92
:104460004CEBC2502EBFBCEB436FB2F57C0F7047D4
:104470004FEA036CBCF1004F08BF20F00100B2F519
:104480007C0F38BF70470BD582F0FF0212F5803FDA
:10449000C8BF704700F1C040D8BF00F0004070476F
:1044A00000F5000C5FEA4C0C48BF7047B0F1C0400B
:1044B00000F073B890EA010F0CEAD11348BF42F440
:1044C0008072624538BF634504D280EA010000F083
:1044D0000040704710B500F01AF800BF8900013E97
:1044E00000F007B800F009B85FEA410C5FEA1C6C05
:1044F00008D080EA010000F050B85FEA400C5FEAA3
:104500001C6CF6D14FF00040A0F5800070470EF112
:10451000020E2EF0030E5EF8044B244204D44FEA40
:104520004102B2F17F4F11D84FEA4003B3F17F4F00
:104530000CD80ED14FEAD07CB2F17F4F0CEB4C0C73
:104540000CF1020C08BF4CEBD17C04E04FF0080CDE
:1045500001E04FEAD17C0CEB4C0324FA03F404F0A5
:104560000704B4F1040C06D20EEB840CBDE8104035
:104570004CF0010C6047DFE80CF0070802024FF036
:104580000040A0F5800010BD0846420018BFD2F1DF
:10459000807288BF00F0004010BDFF2141EAD0507A
:1045A000C005704780F0004090EA010F7FF5DDAD57
:1045B00081F0004100F007B890EA010F48BF81F098
:1045C00000413FF5D2AD421A04D882F00042A0EB80
:1045D000020011444FEAD0524FF07F4C1CEA410FC9
:1045E000A2EBD15318BF9CEA026F4AD04FF0004CA7
:1045F0004CEA00204CEA012121FA03FCB0EB0C0C40
:104600000FD412F0FE0F36D05FEA4C001DD5001219
:1046100040EBC25038BF70471CF03F0F18BF7047C7
:104620000BE0A2F101025FEA1C2040EBC25038BF50
:1046300070471CF07F0F18BF7047C3F120039940EB
:1046400014BF401E20F00100704780084FEA12237B
:1046500008BF7047B0FA80FCA2EB0C02CCF1280C2A
:1046600060FA0CF093EA122F04BF00EBC2507047BF
:104670004FEAC3707047130A5FEADC1008BF704747
:10468000F6E79CEA026F04D010EA5C0F08BF002036
:10469000704710B5FFF73BFF40DFF63E81F000406A
:1046A0007047000000000000000000000000000053
:1046B0000000000000183C3C3C18180018180000CE
:1046C00000000000006666660000000000000000B8
:1046D00000000000006C6CFE6C6C6CFE6C6C0000EA
:1046E00000000018183C66060C183060663C18186C
:1046F000000000000E1B5B6E30180C76DAD87000DC
:1047000000000000001C36361C06F66666DC000061
:104710000000000000181818000000000000000051
:1047200000000000003018180C0C0C0C0C1818308D
:1047300000000000000C1818303030303018180C11
:10474000000000000000006C38FE386C0000000023
:104750000000000000000018187E1818000000007B
:104760000000000000000000000000003838301891
:104770000000000000000000007E000000000000BB
:1047800000000000000000000000000038380000B9
:1047900000000000006060303018180C0C060600A5
:1047A000000000000078CCECECCCDCDCCC78000025
:1047B000000000000030383E303030303030000033
:1047C00000000000003C66666030180C067E0000A9
:1047D00000000000003C666660386066663C0000D1
:1047E00000000000000C0C6C6C6C66FE6060000049
:1047F00000000000007E0606063E6060301E0000DD
:10480000000000000038180C3E666666663C00003A
:1048100000000000007E60303018180C0C0C000006
:1048200000000000003C66666E3C7666663C000058
:1048300000000000003C666666667C30181C0000C4
:104840000000000000000038380000003838000088
:104850000000000000000038380000003838301830
:1048600000000000006030180C060C1830600000DA
:1048700000000000000000007E007E00000000003C
:104880000000000000060C18306030180C06000014
:1048900000000000003C6666301818001818000080
:1048A00000000000007EC3C3F3DBDBF303FE000067
:1048B0000000000000183C6666667E6666660000C2
:1048C00000000000003E6666663E6666663E0000CA
:1048D00000000000003C666606060666663C0000B6
:1048E00000000000001E366666666666361E000022
:1048F00000000000007E0606063E0606067E00005A
:1049000000000000007E0606063E060606060000C1
:1049100000000000003C666606067666667C0000C5
:104920000000000000666666667E666666660000D9
:1049300000000000003C181818181818183C000057
:10494000000000000060606060606066663C00001F
:104950000000000000666636361E363666660000C9
:10496000000000000006060606060606067E000099
:104970000000000000C6C6EED6D6D6C6C6C60000E9
:104980000000000000C6C6CEDEF6E6C6C6C60000C1
:1049900000000000003C666666666666663C0000D5
:1049A00000000000003E6666663E06060606000041
:1049B00000000000003C666666666666663C306025
:1049C00000000000003E6666663E366666660000D1
:1049D00000000000003C66060C183060663C0000D9
:1049E00000000000007E1818181818181818000089
:1049F000000000000066666666666666663C00004B
:104A00000000000000666666666666663C18000088
:104A10000000000000C6C6C6D6D6D66C6C6C00007E
:104A2000000000000066662C1818346666660000F8
:104A30000000000000666666663C18181818000042
:104A400000000000007E606030180C06067E00004A
:104A500000000000003C0C0C0C0C0C0C0C0C0C0CA2
:104A60003C0000000006060C0C1818303060600096
:104A700000000000003C303030303030303030301A
:104A80003C0000183C660000000000000000000030
:104A90000000000000000000000000000000000016
:104AA000FF00001C183000000000000000000000A3
:104AB000000000000000003C60607C66667C000036
:104AC000000000000006063E66666666663E000060
:104AD000000000000000003C66060606663C000080
:104AE000000000000060607C66666666667C000010
:104AF000000000000000003C66667E06063C0000E8
:104B00000000000000780C0C0C7E0C0C0C0C00005B
:104B1000000000000000007C66666666667C6060DF
:104B20003E0000000006063E666666666666000099
:104B3000000000001818001E18181818187E000031
:104B4000000000003030003C303030303030303049
:104B50001E0000000006066666361E366666000009
:104B600000000000001E181818181818187E000001
:104B7000000000000000007ED6D6D6D6D6C60000C3
:104B8000000000000000003E666666666666000083
:104B9000000000000000003C66666666663C00009F
:104BA000000000000000003E66666666663E06067F
:104BB000060000000000007C66666666667C606039
:104BC0006000000000000066760E06060606000083
:104BD000000000000000007C06063C60603E000013
:104BE00000000000000C0C7E0C0C0C0C0C7800007B
:104BF000000000000000006666666666667C0000D5
:104C00000000000000000066666666663C18000052
:104C100000000000000000C6D6D6D6D66C6C00009E
:104C20000000000000000066663C183C666600005C
:104C3000000000000000006666666666663C30188C
:104C40000F0000000000007E6030180C067E00009F
:104C50000000000000301818180C060C1818183046
:104C6000000000000018181818181818181818183C
:104C700018000000000C1818183060301818180CB4
:104C800000000000008EDB7100000000000000004A
:104C90000000FFFFFFFFFFFFFFFFFFFFFFFFFFFF22
:104CA000FFFFFFFFFFFFFFFFFFFFFFFFFFFFFFFF14
:104CB000FFFFFFFFFFFFFFFFFFFFFFFFFFFFFFFF04
:104CC000FFFFFFFFFFFF7966D679FFFFFFFFFFFFC2
:104CD000FFFFFFFFFFFFFFFFFFFFFFFFFFFFFFFFE4
:104CE000FFFFFFFFFFFFFFFFFFFFFFFFFFFFFFFFD4
:104CF000FFFFFFFFFFFFFFFFFFFFFFFFFFFFFFFFC4
:104D0000FFFFFFFFFFFFFFFFFFFFFFFFFFFFFFFFB3
:104D1000FFFFFFFFFFFF70C37945FFFFFFFFFFFFAE
:104D2000FFFFFFFFFFFFFFFFFFFFFFFFFFFFFFFF93
:104D3000FFFFFFFFFFFFFFFFFFFFFFFFFFFFFFFF83
:104D4000FFFFFFFFFFFFFFFFFFFFFFFFFFFFFFFF73
:104D5000FFFFFFFFFFFFFFFFFFFFFFFFFFFFFFFF63
:104D6000FFFFFFFF794570C370C3FFFFFFFFFFFF29
:104D7000FFFFFFFFFFFFFFFFFFFFFFFFFFFFFFFF43
:104D8000FFFFFFFFFFFFFFFFFFFFFFFFFFFFFFFF33
:104D9000FFFFFFFFFFFFFFFFFFFFFFFFFFFFFFFF23
:104DA000FFFFFFFFFFFFFFFFFFFFFFFFFFFFFFFF13
:104DB000FFFF712470C370C370C3FFFFFFFFFFFFCD
:104DC000FFFFFFFFFFFFFFFFFFFFFFFFFFFFFFFFF3
:104DD000FFFFFFFFFFFFFFFFFFFFFFFFFFFFFFFFE3
:104DE000FFFFFFFFFFFFFFFFFFFFFFFFFFFFFFFFD3
:104DF000FFFFFFFFFFFFFFFFFFFFFFFFFFFFFFFFC3
:104E0000712570C370C385D170C3FFFFFFFFFFFF23
:104E1000FFFFFFFFFFFFFFFFFFFFFFFFFFFFFFFFA2
:104E2000FFFFFFFFFFFFFFFFFFFFFFFFFFFFFFFF92
:104E3000FFFFFFFFFFFFFFFFFFFFFFFF7104FFFF0B
:104E4000FFFFFFFFFFFFFFFFFFFFFFFFFFFF7104FB
:104E500070C370C37DF2863270C3FFFFFFFFFFFF98
:104E6000FFFFFFFFFFFFFFFFFFFFFFFFFFFFFFFF52
:104E7000FFFFFFFFFFFFFFFFFFFFFFFFFFFFFFFF42
:104E8000FFFFFFFFFFFFFFFFFFFFFFFF70C3710486
:104E9000FFFFFFFFFFFFFFFFFFFFFFFF710470C376
:104EA00070E365F08632690370C3FFFFFFFFFFFF09
:104EB000FFFFFFFFFFFFFFFFFFFFFFFFFFFFFFFF02
:104EC000FFFFFFFFFFFFFFFFFFFFFFFFFFFFFFFFF2
:104ED000FFFFFFFFFFFFFFFFFFFFFFFFFFFF70C3AD
:104EE00070E3FFFFFFFFFFFFFFFFFFFF70C370C313
:104EF00066107E5235AC70C3D659FFFFFFFFFFFF2F
:104F0000FFFFFFFFFFFFFFFFFFFFFFFFFFFFFFFFB1
:104F1000FFFFFFFFFFFFFFFFFFFFFFFFFFFFFFFFA1
:104F2000FFFFFFFFFFFFFFFFFFFFFFFFFFFF70C35C
:104F300070C370C370C370C370C370C370C370C3D9
:104F400066302DAB2DAB68C370C370C368E370C30C
:104F500070C370C370C3FFFFFFFFFFFFFFFFFFFFC2
:104F6000FFFFFFFFCE5868C370C368C3CE58FFFF72
:104F7000FFFFFFFFFFFFFFFFFFFFFFFFFFFF70C30C
:104F8000358B68C370C370C370C370C370C32D8B7F
:104F90002DCB2DCB2DCB70C370C38612358B2DAB93
:104FA000358B70C370C3FFFFFFFFFFFFFFFFFFFFE5
:104FB000FFFFFFFF68E370C3C16570C370C370C3B8
:104FC000FFFFFFFFFFFFFFFFFFFFFFFFFFFF70C3BC
:104FD0002448661066306630358B35AB68E32DAB00
:104FE0002DCB2DCB7E3286127E127E322DCB2DAB79
:104FF0002DAB68C3CE58FFFFFFFFFFFFFFFFFFFF92
:10500000FFFF70C39145C165C165C165C16570C3CE
:1050100068C3FFFFFFFFFFFF68C370C370C370C3A7
:1050200068E370C368E32DAB2DAB2DCB2DAB2448CB
:10503000244824682DAB2DAB244824482DAB68E3CD
:1050400068E370C3FFFFFFFFFFFFFFFFFFFFFFFFEE
:10505000FFFF70C391459945C165C165C16570C3C6
:1050600070C3FFFF68C370C370C3C166CACBCAAB4D
:10507000CAABC16570C368E3242824482DAB68E33C
:1050800068E324281C682DAB68E370C370C370C349
:1050900070C3CE38FFFFFFFFFFFFFFFFFFFFFFFFE3
:1050A000FFFF70C370C3C165C165C16578C370C3BC
:1050B000FFFF70C378C3C165C165D2AACACBCAAAB3
:1050C000C165C165C165C16570E370C370C3C16668
:1050D00078C370E370C370E370C3C165C165C16616
:1050E00070C370C370E3FFFFFFFFFFFFFFFFFFFF11
:1050F000FFFFFFFF68C370C3916570C370C3FFFFFC
:10510000FFFF70C3C041C041C965C165C165C165CC
:10511000C165C165C165C165CAABCAAACACACAAB05
:10512000CACBC165C165C165CACBCAAAC165C16523
:10513000CACBC16578C368C3FFFFFFFFFFFFFFFF56
:10514000FFFFFFFFFFFF70C3C16570C3FFFFFFFFDD
:10515000FFFF70C3C165CAAAC165C165C165C165EC
:10516000C165C165C165C165C166C165C165C1650E
:10517000C165C165C165C166CACBCAAAC165C16640
:10518000CAABCAABC16578C370C3FFFFFFFFFFFFA7
:10519000FFFFFFFFFFFF70C3996570C3FFFFFFFFB5
:1051A000FFFF70C3C165C165C966C165C965C165D9
:1051B0005882C165C165C165C966C165C965C165FA
:1051C0005882C165C965C965C166C165C965C165E2
:1051D000C165C165C965C16570C3FFFFFFFFFFFF02
:1051E000FFFFFFFFFFFF70C3B96678C370C3CE38FF
:1051F000FFFF78C3C165C165C965C165C165C16689
:105200005882C165C165C165C165C165C965C166B1
:105210005882C165C165C165C166C165C965C165A1
:10522000C965C165C165C16570C3FFFFFFFFFFFFB1
:10523000FFFFFFFFFFFF710478C3C16578C370C330
:1052400070C3C165C165C165C965C165C965C16511
:10525000C165C1655820C165C1655882C165C16518
:10526000C165C165C165C165C965C165C965C165FE
:10527000C965C165C165C16570C3FFFFFFFFFFFF61
:10528000FFFFFFFFFFFFFFFF7124C165C16591654F
:1052900070C3C165C165C965C165C165C965C165C1
:1052A000C165C16558A2B945B96558A2C165C16556
:1052B000C165C965C165C965C165C165C965C165A6
:1052C000C165C965C965C16570C3FFFFFFFFFFFF09
:1052D000FFFFFFFFFFFFFFFFFFFF712470C391453A
:1052E00070C370C3C165C165C165C165C165C16574
:1052F000C165C165C16658A258A2C166C965C165CC
:10530000C165C165C165C165C165C165C165C1656D
:10531000C165C165C165C16570C3FFFFFFFFFFFFC8
:10532000FFFFFFFFFFFFFFFFFFFFFFFF794579450D
:10533000794570C391459145C165C165C965C16530
:10534000C965C965C965C166C966C165C965C16503
:10535000C965C965C165C965C965C165C965C165F5
:10536000C96578E378C3B96570C3FFFFFFFFFFFF2E
:10537000FFFFFFFFFFFFFFFFFFFFFFFFFFFFFFFF3D
:10538000FFFF70C391459165C165C165C165C16588
:10539000C165C165C165C165C166C165C165C165DC
:1053A000C165C165C165C165C166C165C165C165CC
:1053B000C165C165C16570C370C3FFFFFFFFFFFF1B
:1053C000FFFFFFFFFFFFFFFFFFFFFFFFFFFFFFFFED
:1053D000FFFF796670C3914591659945C165C165C7
:1053E000C165C965C165C965C165C165C965C16575
:1053F000C165C965C965C965C165C165C965C1655D
:10540000B945B945B96570C370C3C5D7FFFFFFFF84
:10541000FFFFFFFFFFFFFFFFFFFFFFFFFFFFFFFF9C
:10542000FFFFFFFF798670C3914591659165C16566
:10543000C165C165C165C165C966C165C965C1652B
:10544000C965C165C165C165C965C165C965C16514
:1054500080E370C370C378E378E370C3FFFFFFFF9E
:10546000FFFFFFFFFFFFFFFFFFFFFFFFFFFFFFFF4C
:10547000FFFFFFFFFFFF798670C391459945916556
:105480009165914591459145B966C165C165C9650B
:10549000C965C965C165C965C165C165C165C165C4
:1054A000B94570C370C3B945C16570C3C596FFFFE8
:1054B000FFFFFFFFFFFFFFFFFFFFFFFFFFFFFFFFFC
:1054C000FFFFFFFFFFFFFFFF70C370C391459145D2
:1054D0009145914591459165916591659165B96554
:1054E000C165B965B965B965B9659965B945B94524
:1054F00078C381A681A670C3C16580E370C3FFFF36
:10550000FFFFFFFFFFFFFFFFFFFFFFFFFFFFFFFFAB
:10551000FFFFFFFFFFFFBD9570C380E380E370C313
:1055200081A781A770C391459145914591459145CA
:1055300091459145916591459145914570C381A7EC
:1055400081A7D679FFFF70C3B945C96570C3C596F9
:10555000FFFFFFFFFFFFFFFFFFFFFFFFFFFFFFFF5B
:10556000FFFFFFFFFFFF70C380E3C165C16570C32C
:10557000FFFFFFFF81C781C781C781C781C781C77F
:1055800081C770C3914570C380E380E380E3BD753C
:10559000BD75FFFFFFFF81C770C3C16580E370C3A6
:1055A000FFFFFFFFFFFFFFFFFFFFFFFFFFFFBD55F7
:1055B000BD75BD55BD5570C3C165C965C16570C3B5
:1055C000D679FFFFFFFFFFFFFFFFFFFFFFFFFFFF9A
:1055D000FFFF81E781E781E7B145C165C96580E4E7
:1055E00070C3FFFFFFFFFFFF70C3B145C16670C30B
:1055F000D679FFFFFFFFFFFFFFFFFFFFFFFF70C335
:1056000080E480E380E480E4C166C165B14570C395
:10561000D679FFFFFFFFFFFFFFFFFFFFFFFFFFFF49
:10562000FFFFFFFFFFFFFFFF81E8B145C165C165D7
:1056300070C3FFFFFFFFFFFF70C380E3B96570C356
:10564000D679FFFFFFFFFFFFFFFFFFFFBD3470C3F1
:10565000C165B925B925B925B925B14570C38208F9
:10566000D679FFFFFFFFFFFFFFFFFFFFFFFFFFFFF9
:10567000FFFFFFFFFFFFFFFFFFFF70C3C165C165B5
:1056800070C3BD35FFFFFFFF70C3B965914470C3A0
:10569000D679FFFFFFFFFFFFFFFFFFFF70C370C35F
:1056A000B944908288828882888270C38A08FFFF0A
:1056B000FFFFFFFFFFFFFFFFFFFFFFFFFFFFFFFFFA
:1056C000FFFFFFFFFFFFFFFFFFFF70C3C165C16664
:1056D00088E470C3FFFFFFFF70C3892570C38A0889
:1056E000FFFFFFFFFFFFFFFFFFFFFFFF8A288A2862
:1056F0008882888270C38A288A288A28FFFFFFFF51
:10570000FFFFFFFFFFFFFFFFFFFFFFFFFFFFFFFFA9
:10571000FFFFFFFFFFFFFFFFFFFF70C3C165C16514
:10572000C96570C3B514FFFF82298A288A28FFFF44
:10573000FFFFFFFFFFFFFFFFFFFFFFFFFFFFFFFF79
:105740008A498A498A49FFFFFFFFFFFFFFFFFFFFEA
:10575000FFFFFFFFFFFFFFFFFFFFFFFFFFFFFFFF59
:10576000FFFFFFFFFFFFB4F3B4F370C3C165C16572
:10577000C16578E370C3FFFFFFFFFFFFFFFFFFFF7F
:10578000FFFFFFFFFFFFFFFFFFFFFFFFFFFFFFFF29
:10579000FFFFFFFFFFFFFFFFFFFFFFFFFFFFFFFF19
:1057A000FFFFFFFFFFFFFFFFFFFFFFFFFFFFFFFF09
:1057B000FFFFB4F3B4F370C381048904C165B96514
:1057C000B965916570C3FFFFFFFFFFFFFFFFFFFF9C
:1057D000FFFFFFFFFFFFFFFFFFFFFFFFFFFFFFFFD9
:1057E000FFFFFFFFFFFFFFFFFFFFFFFFFFFFFFFFC9
:1057F000FFFFFFFFFFFFFFFFFFFFFFFFFFFFFFFFB9
:10580000FFFF70C370C38904B165A965B965996567
:105810009165892570C3FFFFFFFFFFFFFFFFFFFFBB
:10582000FFFFFFFFFFFFFFFFFFFFFFFFFFFFFFFF88
:10583000FFFFFFFFFFFFFFFFFFFFFFFFFFFFFFFF78
:10584000FFFFFFFFFFFFFFFFFFFFFFFFFFFFFFFF68
:10585000FFFF8A6A70C3A145A1458924892489254F
:10586000892570C38A6AFFFFFFFFFFFFFFFFFFFF6D
:10587000FFFFFFFFFFFFFFFFFFFFFFFFFFFFFFFF38
:10588000FFFFFFFFFFFFFFFFFFFFFFFFFFFFFFFF28
:10589000FFFFFFFFFFFFFFFFFFFFFFFFFFFFFFFF18
:1058A000FFFFFFFF8A8A928A8AAA928A8A8A928A4C
:1058B000928A8AAAFFFFFFFFFFFFFFFFFFFFFFFFA4
:1058C000FFFFC638C638C638C638C638C638FFFFE8
:1058D000FFFFFFFFFFFFFFFFFFFFFFFFFFFFFFFFD8
:1058E000FFFFFFFFFFFFFFFFFFFFFFFFFFFFFFFFC8
:1058F000FFFFFFFFFFFFFFFFFFFFFFFFFFFFFFFFB8
:10590000FFFFCE9AFFFFFFFFFFFFFFFFFFFFFFFF3D
:10591000FFFF000000000000000001020304060772
:10592000080900000000010203043031323334352D
:1059300036373839414243444546403058003031CB
:1059400032333435363738396162636465664030E6
:1059500078000400000800000000000000020001C0
:1059600000001000845900080000002068000000BA
:105970006C010008EC590008680000205014000079
:10598000880100080000000000000000925ED4EED4
:105990005701B63F2BA226FA7C9451BF3CF54883B1
:1059A000DBEA13C079E9263108AC5CBF08E8BE9C8D
:1059B000D9AEB03F1C5C3AE63CA32AC00000000010
:1059C00000000000000000000000000000000000D7
:1059D00000000000000000000000000001000000C6
:0C59E000100000000000000000A24A04BB
:0400000508000131BD
:00000001FF
